{
  "_format": "hh-sol-artifact-1",
  "contractName": "NFT",
  "sourceName": "contracts/NFT.sol",
  "abi": [
    {
      "inputs": [],
      "stateMutability": "nonpayable",
      "type": "constructor"
    },
    {
      "anonymous": false,
      "inputs": [
        {
          "indexed": true,
          "internalType": "address",
          "name": "owner",
          "type": "address"
        },
        {
          "indexed": true,
          "internalType": "address",
          "name": "approved",
          "type": "address"
        },
        {
          "indexed": true,
          "internalType": "uint256",
          "name": "tokenId",
          "type": "uint256"
        }
      ],
      "name": "Approval",
      "type": "event"
    },
    {
      "anonymous": false,
      "inputs": [
        {
          "indexed": true,
          "internalType": "address",
          "name": "owner",
          "type": "address"
        },
        {
          "indexed": true,
          "internalType": "address",
          "name": "operator",
          "type": "address"
        },
        {
          "indexed": false,
          "internalType": "bool",
          "name": "approved",
          "type": "bool"
        }
      ],
      "name": "ApprovalForAll",
      "type": "event"
    },
    {
      "anonymous": false,
      "inputs": [
        {
          "indexed": true,
          "internalType": "uint256",
          "name": "itemId",
          "type": "uint256"
        },
        {
          "indexed": true,
          "internalType": "uint256",
          "name": "tokenId",
          "type": "uint256"
        },
        {
          "indexed": false,
          "internalType": "address",
          "name": "seller",
          "type": "address"
        },
        {
          "indexed": false,
          "internalType": "address",
          "name": "owner",
          "type": "address"
        },
        {
          "indexed": false,
          "internalType": "uint256",
          "name": "price",
          "type": "uint256"
        },
        {
          "indexed": false,
          "internalType": "bool",
          "name": "sold",
          "type": "bool"
        },
        {
          "indexed": false,
          "internalType": "address",
          "name": "original_owner",
          "type": "address"
        }
      ],
      "name": "MarketItemCreated",
      "type": "event"
    },
    {
      "anonymous": false,
      "inputs": [
        {
          "indexed": true,
          "internalType": "address",
          "name": "from",
          "type": "address"
        },
        {
          "indexed": true,
          "internalType": "address",
          "name": "to",
          "type": "address"
        },
        {
          "indexed": true,
          "internalType": "uint256",
          "name": "tokenId",
          "type": "uint256"
        }
      ],
      "name": "Transfer",
      "type": "event"
    },
    {
      "inputs": [
        {
          "internalType": "address",
          "name": "to",
          "type": "address"
        },
        {
          "internalType": "uint256",
          "name": "tokenId",
          "type": "uint256"
        }
      ],
      "name": "approve",
      "outputs": [],
      "stateMutability": "nonpayable",
      "type": "function"
    },
    {
      "inputs": [
        {
          "internalType": "address",
          "name": "owner",
          "type": "address"
        }
      ],
      "name": "balanceOf",
      "outputs": [
        {
          "internalType": "uint256",
          "name": "",
          "type": "uint256"
        }
      ],
      "stateMutability": "view",
      "type": "function"
    },
    {
      "inputs": [
        {
          "internalType": "uint256",
          "name": "tokenID",
          "type": "uint256"
        }
      ],
      "name": "burn",
      "outputs": [],
      "stateMutability": "nonpayable",
      "type": "function"
    },
    {
      "inputs": [
        {
          "internalType": "uint256",
          "name": "itemId",
          "type": "uint256"
        }
      ],
      "name": "createMarketSale",
      "outputs": [],
      "stateMutability": "payable",
      "type": "function"
    },
    {
      "inputs": [
        {
          "internalType": "string",
          "name": "_tokenURI",
          "type": "string"
        },
        {
          "internalType": "uint256",
          "name": "price",
          "type": "uint256"
        }
      ],
      "name": "createToken",
      "outputs": [],
      "stateMutability": "payable",
      "type": "function"
    },
    {
      "inputs": [],
      "name": "fetchItemsCreated",
      "outputs": [
        {
          "components": [
            {
              "internalType": "uint256",
              "name": "itemId",
              "type": "uint256"
            },
            {
              "internalType": "uint256",
              "name": "tokenId",
              "type": "uint256"
            },
            {
              "internalType": "address payable",
              "name": "seller",
              "type": "address"
            },
            {
              "internalType": "address payable",
              "name": "owner",
              "type": "address"
            },
            {
              "internalType": "uint256",
              "name": "price",
              "type": "uint256"
            },
            {
              "internalType": "bool",
              "name": "sold",
              "type": "bool"
            },
            {
              "internalType": "address payable",
              "name": "original_owner",
              "type": "address"
            }
          ],
          "internalType": "struct NFT.MarketItem[]",
          "name": "",
          "type": "tuple[]"
        }
      ],
      "stateMutability": "view",
      "type": "function"
    },
    {
      "inputs": [],
      "name": "fetchMarketItems",
      "outputs": [
        {
          "components": [
            {
              "internalType": "uint256",
              "name": "itemId",
              "type": "uint256"
            },
            {
              "internalType": "uint256",
              "name": "tokenId",
              "type": "uint256"
            },
            {
              "internalType": "address payable",
              "name": "seller",
              "type": "address"
            },
            {
              "internalType": "address payable",
              "name": "owner",
              "type": "address"
            },
            {
              "internalType": "uint256",
              "name": "price",
              "type": "uint256"
            },
            {
              "internalType": "bool",
              "name": "sold",
              "type": "bool"
            },
            {
              "internalType": "address payable",
              "name": "original_owner",
              "type": "address"
            }
          ],
          "internalType": "struct NFT.MarketItem[]",
          "name": "",
          "type": "tuple[]"
        }
      ],
      "stateMutability": "view",
      "type": "function"
    },
    {
      "inputs": [],
      "name": "fetchMyNFTs",
      "outputs": [
        {
          "components": [
            {
              "internalType": "uint256",
              "name": "itemId",
              "type": "uint256"
            },
            {
              "internalType": "uint256",
              "name": "tokenId",
              "type": "uint256"
            },
            {
              "internalType": "address payable",
              "name": "seller",
              "type": "address"
            },
            {
              "internalType": "address payable",
              "name": "owner",
              "type": "address"
            },
            {
              "internalType": "uint256",
              "name": "price",
              "type": "uint256"
            },
            {
              "internalType": "bool",
              "name": "sold",
              "type": "bool"
            },
            {
              "internalType": "address payable",
              "name": "original_owner",
              "type": "address"
            }
          ],
          "internalType": "struct NFT.MarketItem[]",
          "name": "",
          "type": "tuple[]"
        }
      ],
      "stateMutability": "view",
      "type": "function"
    },
    {
      "inputs": [
        {
          "internalType": "uint256",
          "name": "tokenId",
          "type": "uint256"
        }
      ],
      "name": "getApproved",
      "outputs": [
        {
          "internalType": "address",
          "name": "",
          "type": "address"
        }
      ],
      "stateMutability": "view",
      "type": "function"
    },
    {
      "inputs": [
        {
          "internalType": "address",
          "name": "owner",
          "type": "address"
        },
        {
          "internalType": "address",
          "name": "operator",
          "type": "address"
        }
      ],
      "name": "isApprovedForAll",
      "outputs": [
        {
          "internalType": "bool",
          "name": "",
          "type": "bool"
        }
      ],
      "stateMutability": "view",
      "type": "function"
    },
    {
      "inputs": [],
      "name": "name",
      "outputs": [
        {
          "internalType": "string",
          "name": "",
          "type": "string"
        }
      ],
      "stateMutability": "view",
      "type": "function"
    },
    {
      "inputs": [
        {
          "internalType": "uint256",
          "name": "tokenId",
          "type": "uint256"
        }
      ],
      "name": "ownerOf",
      "outputs": [
        {
          "internalType": "address",
          "name": "",
          "type": "address"
        }
      ],
      "stateMutability": "view",
      "type": "function"
    },
    {
      "inputs": [
        {
          "internalType": "address",
          "name": "from",
          "type": "address"
        },
        {
          "internalType": "address",
          "name": "to",
          "type": "address"
        },
        {
          "internalType": "uint256",
          "name": "tokenId",
          "type": "uint256"
        }
      ],
      "name": "safeTransferFrom",
      "outputs": [],
      "stateMutability": "nonpayable",
      "type": "function"
    },
    {
      "inputs": [
        {
          "internalType": "address",
          "name": "from",
          "type": "address"
        },
        {
          "internalType": "address",
          "name": "to",
          "type": "address"
        },
        {
          "internalType": "uint256",
          "name": "tokenId",
          "type": "uint256"
        },
        {
          "internalType": "bytes",
          "name": "_data",
          "type": "bytes"
        }
      ],
      "name": "safeTransferFrom",
      "outputs": [],
      "stateMutability": "nonpayable",
      "type": "function"
    },
    {
      "inputs": [
        {
          "internalType": "address",
          "name": "operator",
          "type": "address"
        },
        {
          "internalType": "bool",
          "name": "approved",
          "type": "bool"
        }
      ],
      "name": "setApprovalForAll",
      "outputs": [],
      "stateMutability": "nonpayable",
      "type": "function"
    },
    {
      "inputs": [
        {
          "internalType": "bytes4",
          "name": "interfaceId",
          "type": "bytes4"
        }
      ],
      "name": "supportsInterface",
      "outputs": [
        {
          "internalType": "bool",
          "name": "",
          "type": "bool"
        }
      ],
      "stateMutability": "view",
      "type": "function"
    },
    {
      "inputs": [],
      "name": "symbol",
      "outputs": [
        {
          "internalType": "string",
          "name": "",
          "type": "string"
        }
      ],
      "stateMutability": "view",
      "type": "function"
    },
    {
      "inputs": [
        {
          "internalType": "uint256",
          "name": "tokenId",
          "type": "uint256"
        }
      ],
      "name": "tokenURI",
      "outputs": [
        {
          "internalType": "string",
          "name": "",
          "type": "string"
        }
      ],
      "stateMutability": "view",
      "type": "function"
    },
    {
      "inputs": [
        {
          "internalType": "address",
          "name": "from",
          "type": "address"
        },
        {
          "internalType": "address",
          "name": "to",
          "type": "address"
        },
        {
          "internalType": "uint256",
          "name": "tokenId",
          "type": "uint256"
        }
      ],
      "name": "transferFrom",
      "outputs": [],
      "stateMutability": "nonpayable",
      "type": "function"
    }
  ],
  "bytecode": "0x60806040526001600b556002600c553480156200001b57600080fd5b506040518060400160405280600d81526020017f556e6e616d656420546f6b656e000000000000000000000000000000000000008152506040518060400160405280600481526020017f554e544b000000000000000000000000000000000000000000000000000000008152508160009080519060200190620000a09291906200010b565b508060019080519060200190620000b99291906200010b565b505050600160078190555033600a60006101000a81548173ffffffffffffffffffffffffffffffffffffffff021916908373ffffffffffffffffffffffffffffffffffffffff16021790555062000220565b8280546200011990620001bb565b90600052602060002090601f0160209004810192826200013d576000855562000189565b82601f106200015857805160ff191683800117855562000189565b8280016001018555821562000189579182015b82811115620001885782518255916020019190600101906200016b565b5b5090506200019891906200019c565b5090565b5b80821115620001b75760008160009055506001016200019d565b5090565b60006002820490506001821680620001d457607f821691505b60208210811415620001eb57620001ea620001f1565b5b50919050565b7f4e487b7100000000000000000000000000000000000000000000000000000000600052602260045260246000fd5b6144dd80620002306000396000f3fe6080604052600436106101145760003560e01c80636352211e116100a0578063b88d4fde11610064578063b88d4fde146103a2578063be9af536146103cb578063c87b56dd146103e7578063e985e9c514610424578063f064c32e1461046157610114565b80636352211e146102b857806370a08231146102f557806372b3b6201461033257806395d89b411461034e578063a22cb4651461037957610114565b80630f08efe0116100e75780630f08efe0146101e7578063202e37401461021257806323b872dd1461023d57806342842e0e1461026657806342966c681461028f57610114565b806301ffc9a71461011957806306fdde0314610156578063081812fc14610181578063095ea7b3146101be575b600080fd5b34801561012557600080fd5b50610140600480360381019061013b919061305d565b61048c565b60405161014d919061370c565b60405180910390f35b34801561016257600080fd5b5061016b61056e565b6040516101789190613727565b60405180910390f35b34801561018d57600080fd5b506101a860048036038101906101a39190613103565b610600565b6040516101b59190613630565b60405180910390f35b3480156101ca57600080fd5b506101e560048036038101906101e09190613021565b610685565b005b3480156101f357600080fd5b506101fc61079d565b60405161020991906136ea565b60405180910390f35b34801561021e57600080fd5b50610227610a78565b60405161023491906136ea565b60405180910390f35b34801561024957600080fd5b50610264600480360381019061025f9190612f1b565b610e12565b005b34801561027257600080fd5b5061028d60048036038101906102889190612f1b565b610e72565b005b34801561029b57600080fd5b506102b660048036038101906102b19190613103565b610e92565b005b3480156102c457600080fd5b506102df60048036038101906102da9190613103565b610f42565b6040516102ec9190613630565b60405180910390f35b34801561030157600080fd5b5061031c60048036038101906103179190612eb6565b610ff4565b60405161032991906139e9565b60405180910390f35b61034c600480360381019061034791906130af565b6110ac565b005b34801561035a57600080fd5b50610363611365565b6040516103709190613727565b60405180910390f35b34801561038557600080fd5b506103a0600480360381019061039b9190612fe5565b6113f7565b005b3480156103ae57600080fd5b506103c960048036038101906103c49190612f6a565b61140d565b005b6103e560048036038101906103e09190613103565b61146f565b005b3480156103f357600080fd5b5061040e60048036038101906104099190613103565b61181b565b60405161041b9190613727565b60405180910390f35b34801561043057600080fd5b5061044b60048036038101906104469190612edf565b61196d565b604051610458919061370c565b60405180910390f35b34801561046d57600080fd5b50610476611a01565b60405161048391906136ea565b60405180910390f35b60007f80ac58cd000000000000000000000000000000000000000000000000000000007bffffffffffffffffffffffffffffffffffffffffffffffffffffffff1916827bffffffffffffffffffffffffffffffffffffffffffffffffffffffff1916148061055757507f5b5e139f000000000000000000000000000000000000000000000000000000007bffffffffffffffffffffffffffffffffffffffffffffffffffffffff1916827bffffffffffffffffffffffffffffffffffffffffffffffffffffffff1916145b80610567575061056682611d9b565b5b9050919050565b60606000805461057d90613ce4565b80601f01602080910402602001604051908101604052809291908181526020018280546105a990613ce4565b80156105f65780601f106105cb576101008083540402835291602001916105f6565b820191906000526020600020905b8154815290600101906020018083116105d957829003601f168201915b5050505050905090565b600061060b82611e05565b61064a576040517f08c379a0000000000000000000000000000000000000000000000000000000008152600401610641906138c9565b60405180910390fd5b6004600083815260200190815260200160002060009054906101000a900473ffffffffffffffffffffffffffffffffffffffff169050919050565b600061069082610f42565b90508073ffffffffffffffffffffffffffffffffffffffff168373ffffffffffffffffffffffffffffffffffffffff161415610701576040517f08c379a00000000000000000000000000000000000000000000000000000000081526004016106f890613969565b60405180910390fd5b8073ffffffffffffffffffffffffffffffffffffffff16610720611e71565b73ffffffffffffffffffffffffffffffffffffffff16148061074f575061074e81610749611e71565b61196d565b5b61078e576040517f08c379a0000000000000000000000000000000000000000000000000000000008152600401610785906137e9565b60405180910390fd5b6107988383611e79565b505050565b606060006107ab6008611f32565b905060006107b96009611f32565b6107c36008611f32565b6107cd9190613be8565b90506000808267ffffffffffffffff811115610812577f4e487b7100000000000000000000000000000000000000000000000000000000600052604160045260246000fd5b60405190808252806020026020018201604052801561084b57816020015b610838612c19565b8152602001906001900390816108305790505b50905060005b84811015610a6d5760001515600d600060018461086e9190613b07565b815260200190815260200160002060050160009054906101000a900460ff1615151415610a5a5760006001826108a49190613b07565b90506000600d60008381526020019081526020016000209050806040518060e001604052908160008201548152602001600182015481526020016002820160009054906101000a900473ffffffffffffffffffffffffffffffffffffffff1673ffffffffffffffffffffffffffffffffffffffff1673ffffffffffffffffffffffffffffffffffffffff1681526020016003820160009054906101000a900473ffffffffffffffffffffffffffffffffffffffff1673ffffffffffffffffffffffffffffffffffffffff1673ffffffffffffffffffffffffffffffffffffffff168152602001600482015481526020016005820160009054906101000a900460ff161515151581526020016005820160019054906101000a900473ffffffffffffffffffffffffffffffffffffffff1673ffffffffffffffffffffffffffffffffffffffff1673ffffffffffffffffffffffffffffffffffffffff1681525050848681518110610a3d577f4e487b7100000000000000000000000000000000000000000000000000000000600052603260045260246000fd5b6020026020010181905250600185610a559190613b07565b945050505b8080610a6590613d47565b915050610851565b508094505050505090565b60606000610a866008611f32565b905060008060005b83811015610b2f573373ffffffffffffffffffffffffffffffffffffffff16600d6000600184610abe9190613b07565b815260200190815260200160002060030160009054906101000a900473ffffffffffffffffffffffffffffffffffffffff1673ffffffffffffffffffffffffffffffffffffffff161415610b1c57600183610b199190613b07565b92505b8080610b2790613d47565b915050610a8e565b5060008267ffffffffffffffff811115610b72577f4e487b7100000000000000000000000000000000000000000000000000000000600052604160045260246000fd5b604051908082528060200260200182016040528015610bab57816020015b610b98612c19565b815260200190600190039081610b905790505b50905060005b84811015610e07573373ffffffffffffffffffffffffffffffffffffffff16600d6000600184610be19190613b07565b815260200190815260200160002060030160009054906101000a900473ffffffffffffffffffffffffffffffffffffffff1673ffffffffffffffffffffffffffffffffffffffff161415610df4576000600182610c3e9190613b07565b90506000600d60008381526020019081526020016000209050806040518060e001604052908160008201548152602001600182015481526020016002820160009054906101000a900473ffffffffffffffffffffffffffffffffffffffff1673ffffffffffffffffffffffffffffffffffffffff1673ffffffffffffffffffffffffffffffffffffffff1681526020016003820160009054906101000a900473ffffffffffffffffffffffffffffffffffffffff1673ffffffffffffffffffffffffffffffffffffffff1673ffffffffffffffffffffffffffffffffffffffff168152602001600482015481526020016005820160009054906101000a900460ff161515151581526020016005820160019054906101000a900473ffffffffffffffffffffffffffffffffffffffff1673ffffffffffffffffffffffffffffffffffffffff1673ffffffffffffffffffffffffffffffffffffffff1681525050848681518110610dd7577f4e487b7100000000000000000000000000000000000000000000000000000000600052603260045260246000fd5b6020026020010181905250600185610def9190613b07565b945050505b8080610dff90613d47565b915050610bb1565b508094505050505090565b610e23610e1d611e71565b82611f40565b610e62576040517f08c379a0000000000000000000000000000000000000000000000000000000008152600401610e5990613989565b60405180910390fd5b610e6d83838361201e565b505050565b610e8d8383836040518060200160405280600081525061140d565b505050565b600d600082815260200190815260200160002060030160009054906101000a900473ffffffffffffffffffffffffffffffffffffffff1673ffffffffffffffffffffffffffffffffffffffff163373ffffffffffffffffffffffffffffffffffffffff1614610f36576040517f08c379a0000000000000000000000000000000000000000000000000000000008152600401610f2d90613869565b60405180910390fd5b610f3f8161227a565b50565b6000806002600084815260200190815260200160002060009054906101000a900473ffffffffffffffffffffffffffffffffffffffff169050600073ffffffffffffffffffffffffffffffffffffffff168173ffffffffffffffffffffffffffffffffffffffff161415610feb576040517f08c379a0000000000000000000000000000000000000000000000000000000008152600401610fe290613829565b60405180910390fd5b80915050919050565b60008073ffffffffffffffffffffffffffffffffffffffff168273ffffffffffffffffffffffffffffffffffffffff161415611065576040517f08c379a000000000000000000000000000000000000000000000000000000000815260040161105c90613809565b60405180910390fd5b600360008373ffffffffffffffffffffffffffffffffffffffff1673ffffffffffffffffffffffffffffffffffffffff168152602001908152602001600020549050919050565b600260075414156110f2576040517f08c379a00000000000000000000000000000000000000000000000000000000081526004016110e9906139c9565b60405180910390fd5b600260078190555061110460086122cd565b60006111106008611f32565b905061111c33826122e3565b61112681846124b1565b600082101561116a576040517f08c379a000000000000000000000000000000000000000000000000000000000815260040161116190613949565b60405180910390fd5b6040518060e001604052808281526020018281526020013373ffffffffffffffffffffffffffffffffffffffff1681526020013373ffffffffffffffffffffffffffffffffffffffff1681526020018381526020016000151581526020013373ffffffffffffffffffffffffffffffffffffffff16815250600d6000838152602001908152602001600020600082015181600001556020820151816001015560408201518160020160006101000a81548173ffffffffffffffffffffffffffffffffffffffff021916908373ffffffffffffffffffffffffffffffffffffffff16021790555060608201518160030160006101000a81548173ffffffffffffffffffffffffffffffffffffffff021916908373ffffffffffffffffffffffffffffffffffffffff1602179055506080820151816004015560a08201518160050160006101000a81548160ff02191690831515021790555060c08201518160050160016101000a81548173ffffffffffffffffffffffffffffffffffffffff021916908373ffffffffffffffffffffffffffffffffffffffff160217905550905050611316333383610e12565b80817f7422d6b0d02b607c3a0a319f1cf5de50f4381f2313c5936c4f30f92f304e430833338660003360405161135095949392919061364b565b60405180910390a35060016007819055505050565b60606001805461137490613ce4565b80601f01602080910402602001604051908101604052809291908181526020018280546113a090613ce4565b80156113ed5780601f106113c2576101008083540402835291602001916113ed565b820191906000526020600020905b8154815290600101906020018083116113d057829003601f168201915b5050505050905090565b611409611402611e71565b8383612525565b5050565b61141e611418611e71565b83611f40565b61145d576040517f08c379a000000000000000000000000000000000000000000000000000000000815260040161145490613989565b60405180910390fd5b61146984848484612692565b50505050565b600260075414156114b5576040517f08c379a00000000000000000000000000000000000000000000000000000000081526004016114ac906139c9565b60405180910390fd5b60026007819055506000600d60008381526020019081526020016000206004015490506000600d600084815260200190815260200160002060050160019054906101000a900473ffffffffffffffffffffffffffffffffffffffff1690506000600d600085815260200190815260200160002060030160009054906101000a900473ffffffffffffffffffffffffffffffffffffffff16905060001515600d600086815260200190815260200160002060050160009054906101000a900460ff161515146115b8576040517f08c379a00000000000000000000000000000000000000000000000000000000081526004016115af906139a9565b60405180910390fd5b823410156115fb576040517f08c379a00000000000000000000000000000000000000000000000000000000081526004016115f290613929565b60405180910390fd5b6000349050600060643461160f9190613b5d565b90506000600b54826116219190613b8e565b90506000600c54836116339190613b8e565b905081846116419190613be8565b9350808461164f9190613be8565b9350600d600089815260200190815260200160002060020160009054906101000a900473ffffffffffffffffffffffffffffffffffffffff1673ffffffffffffffffffffffffffffffffffffffff166108fc859081150290604051600060405180830381858888f193505050501580156116cd573d6000803e3d6000fd5b506116d985338a610e12565b33600d60008a815260200190815260200160002060030160006101000a81548173ffffffffffffffffffffffffffffffffffffffff021916908373ffffffffffffffffffffffffffffffffffffffff1602179055506001600d60008a815260200190815260200160002060050160006101000a81548160ff02191690831515021790555061176760096122cd565b732e6102ca1e020bfd044a3cb54540f84dcb4eaf0273ffffffffffffffffffffffffffffffffffffffff166108fc839081150290604051600060405180830381858888f193505050501580156117c1573d6000803e3d6000fd5b508573ffffffffffffffffffffffffffffffffffffffff166108fc829081150290604051600060405180830381858888f19350505050158015611808573d6000803e3d6000fd5b5050505050505050600160078190555050565b606061182682611e05565b611865576040517f08c379a000000000000000000000000000000000000000000000000000000000815260040161185c906138a9565b60405180910390fd5b600060066000848152602001908152602001600020805461188590613ce4565b80601f01602080910402602001604051908101604052809291908181526020018280546118b190613ce4565b80156118fe5780601f106118d3576101008083540402835291602001916118fe565b820191906000526020600020905b8154815290600101906020018083116118e157829003601f168201915b50505050509050600061190f6126ee565b9050600081511415611925578192505050611968565b60008251111561195a57808260405160200161194292919061360c565b60405160208183030381529060405292505050611968565b61196384612705565b925050505b919050565b6000600560008473ffffffffffffffffffffffffffffffffffffffff1673ffffffffffffffffffffffffffffffffffffffff16815260200190815260200160002060008373ffffffffffffffffffffffffffffffffffffffff1673ffffffffffffffffffffffffffffffffffffffff16815260200190815260200160002060009054906101000a900460ff16905092915050565b60606000611a0f6008611f32565b905060008060005b83811015611ab8573373ffffffffffffffffffffffffffffffffffffffff16600d6000600184611a479190613b07565b815260200190815260200160002060020160009054906101000a900473ffffffffffffffffffffffffffffffffffffffff1673ffffffffffffffffffffffffffffffffffffffff161415611aa557600183611aa29190613b07565b92505b8080611ab090613d47565b915050611a17565b5060008267ffffffffffffffff811115611afb577f4e487b7100000000000000000000000000000000000000000000000000000000600052604160045260246000fd5b604051908082528060200260200182016040528015611b3457816020015b611b21612c19565b815260200190600190039081611b195790505b50905060005b84811015611d90573373ffffffffffffffffffffffffffffffffffffffff16600d6000600184611b6a9190613b07565b815260200190815260200160002060020160009054906101000a900473ffffffffffffffffffffffffffffffffffffffff1673ffffffffffffffffffffffffffffffffffffffff161415611d7d576000600182611bc79190613b07565b90506000600d60008381526020019081526020016000209050806040518060e001604052908160008201548152602001600182015481526020016002820160009054906101000a900473ffffffffffffffffffffffffffffffffffffffff1673ffffffffffffffffffffffffffffffffffffffff1673ffffffffffffffffffffffffffffffffffffffff1681526020016003820160009054906101000a900473ffffffffffffffffffffffffffffffffffffffff1673ffffffffffffffffffffffffffffffffffffffff1673ffffffffffffffffffffffffffffffffffffffff168152602001600482015481526020016005820160009054906101000a900460ff161515151581526020016005820160019054906101000a900473ffffffffffffffffffffffffffffffffffffffff1673ffffffffffffffffffffffffffffffffffffffff1673ffffffffffffffffffffffffffffffffffffffff1681525050848681518110611d60577f4e487b7100000000000000000000000000000000000000000000000000000000600052603260045260246000fd5b6020026020010181905250600185611d789190613b07565b945050505b8080611d8890613d47565b915050611b3a565b508094505050505090565b60007f01ffc9a7000000000000000000000000000000000000000000000000000000007bffffffffffffffffffffffffffffffffffffffffffffffffffffffff1916827bffffffffffffffffffffffffffffffffffffffffffffffffffffffff1916149050919050565b60008073ffffffffffffffffffffffffffffffffffffffff166002600084815260200190815260200160002060009054906101000a900473ffffffffffffffffffffffffffffffffffffffff1673ffffffffffffffffffffffffffffffffffffffff1614159050919050565b600033905090565b816004600083815260200190815260200160002060006101000a81548173ffffffffffffffffffffffffffffffffffffffff021916908373ffffffffffffffffffffffffffffffffffffffff160217905550808273ffffffffffffffffffffffffffffffffffffffff16611eec83610f42565b73ffffffffffffffffffffffffffffffffffffffff167f8c5be1e5ebec7d5bd14f71427d1e84f3dd0314c0f7b2291e5b200ac8c7c3b92560405160405180910390a45050565b600081600001549050919050565b6000611f4b82611e05565b611f8a576040517f08c379a0000000000000000000000000000000000000000000000000000000008152600401611f81906137c9565b60405180910390fd5b6000611f9583610f42565b90508073ffffffffffffffffffffffffffffffffffffffff168473ffffffffffffffffffffffffffffffffffffffff16148061200457508373ffffffffffffffffffffffffffffffffffffffff16611fec84610600565b73ffffffffffffffffffffffffffffffffffffffff16145b806120155750612014818561196d565b5b91505092915050565b8273ffffffffffffffffffffffffffffffffffffffff1661203e82610f42565b73ffffffffffffffffffffffffffffffffffffffff1614612094576040517f08c379a000000000000000000000000000000000000000000000000000000000815260040161208b906138e9565b60405180910390fd5b600073ffffffffffffffffffffffffffffffffffffffff168273ffffffffffffffffffffffffffffffffffffffff161415612104576040517f08c379a00000000000000000000000000000000000000000000000000000000081526004016120fb90613789565b60405180910390fd5b61210f8383836127ac565b61211a600082611e79565b6001600360008573ffffffffffffffffffffffffffffffffffffffff1673ffffffffffffffffffffffffffffffffffffffff168152602001908152602001600020600082825461216a9190613be8565b925050819055506001600360008473ffffffffffffffffffffffffffffffffffffffff1673ffffffffffffffffffffffffffffffffffffffff16815260200190815260200160002060008282546121c19190613b07565b92505081905550816002600083815260200190815260200160002060006101000a81548173ffffffffffffffffffffffffffffffffffffffff021916908373ffffffffffffffffffffffffffffffffffffffff160217905550808273ffffffffffffffffffffffffffffffffffffffff168473ffffffffffffffffffffffffffffffffffffffff167fddf252ad1be2c89b69c2b068fc378daa952ba7f163c4a11628f55a4df523b3ef60405160405180910390a4505050565b612283816127b1565b60006006600083815260200190815260200160002080546122a390613ce4565b9050146122ca576006600082815260200190815260200160002060006122c99190612c9a565b5b50565b6001816000016000828254019250508190555050565b600073ffffffffffffffffffffffffffffffffffffffff168273ffffffffffffffffffffffffffffffffffffffff161415612353576040517f08c379a000000000000000000000000000000000000000000000000000000000815260040161234a90613889565b60405180910390fd5b61235c81611e05565b1561239c576040517f08c379a000000000000000000000000000000000000000000000000000000000815260040161239390613769565b60405180910390fd5b6123a8600083836127ac565b6001600360008473ffffffffffffffffffffffffffffffffffffffff1673ffffffffffffffffffffffffffffffffffffffff16815260200190815260200160002060008282546123f89190613b07565b92505081905550816002600083815260200190815260200160002060006101000a81548173ffffffffffffffffffffffffffffffffffffffff021916908373ffffffffffffffffffffffffffffffffffffffff160217905550808273ffffffffffffffffffffffffffffffffffffffff16600073ffffffffffffffffffffffffffffffffffffffff167fddf252ad1be2c89b69c2b068fc378daa952ba7f163c4a11628f55a4df523b3ef60405160405180910390a45050565b6124ba82611e05565b6124f9576040517f08c379a00000000000000000000000000000000000000000000000000000000081526004016124f090613849565b60405180910390fd5b80600660008481526020019081526020016000209080519060200190612520929190612cda565b505050565b8173ffffffffffffffffffffffffffffffffffffffff168373ffffffffffffffffffffffffffffffffffffffff161415612594576040517f08c379a000000000000000000000000000000000000000000000000000000000815260040161258b906137a9565b60405180910390fd5b80600560008573ffffffffffffffffffffffffffffffffffffffff1673ffffffffffffffffffffffffffffffffffffffff16815260200190815260200160002060008473ffffffffffffffffffffffffffffffffffffffff1673ffffffffffffffffffffffffffffffffffffffff16815260200190815260200160002060006101000a81548160ff0219169083151502179055508173ffffffffffffffffffffffffffffffffffffffff168373ffffffffffffffffffffffffffffffffffffffff167f17307eab39ab6107e8899845ad3d59bd9653f200f220920489ca2b5937696c3183604051612685919061370c565b60405180910390a3505050565b61269d84848461201e565b6126a9848484846128c2565b6126e8576040517f08c379a00000000000000000000000000000000000000000000000000000000081526004016126df90613749565b60405180910390fd5b50505050565b606060405180602001604052806000815250905090565b606061271082611e05565b61274f576040517f08c379a000000000000000000000000000000000000000000000000000000000815260040161274690613909565b60405180910390fd5b60006127596126ee565b9050600081511161277957604051806020016040528060008152506127a4565b8061278384612a59565b60405160200161279492919061360c565b6040516020818303038152906040525b915050919050565b505050565b60006127bc82610f42565b90506127ca816000846127ac565b6127d5600083611e79565b6001600360008373ffffffffffffffffffffffffffffffffffffffff1673ffffffffffffffffffffffffffffffffffffffff16815260200190815260200160002060008282546128259190613be8565b925050819055506002600083815260200190815260200160002060006101000a81549073ffffffffffffffffffffffffffffffffffffffff021916905581600073ffffffffffffffffffffffffffffffffffffffff168273ffffffffffffffffffffffffffffffffffffffff167fddf252ad1be2c89b69c2b068fc378daa952ba7f163c4a11628f55a4df523b3ef60405160405180910390a45050565b60006128e38473ffffffffffffffffffffffffffffffffffffffff16612c06565b15612a4c578373ffffffffffffffffffffffffffffffffffffffff1663150b7a0261290c611e71565b8786866040518563ffffffff1660e01b815260040161292e949392919061369e565b602060405180830381600087803b15801561294857600080fd5b505af192505050801561297957506040513d601f19601f820116820180604052508101906129769190613086565b60015b6129fc573d80600081146129a9576040519150601f19603f3d011682016040523d82523d6000602084013e6129ae565b606091505b506000815114156129f4576040517f08c379a00000000000000000000000000000000000000000000000000000000081526004016129eb90613749565b60405180910390fd5b805181602001fd5b63150b7a0260e01b7bffffffffffffffffffffffffffffffffffffffffffffffffffffffff1916817bffffffffffffffffffffffffffffffffffffffffffffffffffffffff191614915050612a51565b600190505b949350505050565b60606000821415612aa1576040518060400160405280600181526020017f30000000000000000000000000000000000000000000000000000000000000008152509050612c01565b600082905060005b60008214612ad3578080612abc90613d47565b915050600a82612acc9190613b5d565b9150612aa9565b60008167ffffffffffffffff811115612b15577f4e487b7100000000000000000000000000000000000000000000000000000000600052604160045260246000fd5b6040519080825280601f01601f191660200182016040528015612b475781602001600182028036833780820191505090505b5090505b60008514612bfa57600182612b609190613be8565b9150600a85612b6f9190613d90565b6030612b7b9190613b07565b60f81b818381518110612bb7577f4e487b7100000000000000000000000000000000000000000000000000000000600052603260045260246000fd5b60200101907effffffffffffffffffffffffffffffffffffffffffffffffffffffffffffff1916908160001a905350600a85612bf39190613b5d565b9450612b4b565b8093505050505b919050565b600080823b905060008111915050919050565b6040518060e001604052806000815260200160008152602001600073ffffffffffffffffffffffffffffffffffffffff168152602001600073ffffffffffffffffffffffffffffffffffffffff16815260200160008152602001600015158152602001600073ffffffffffffffffffffffffffffffffffffffff1681525090565b508054612ca690613ce4565b6000825580601f10612cb85750612cd7565b601f016020900490600052602060002090810190612cd69190612d60565b5b50565b828054612ce690613ce4565b90600052602060002090601f016020900481019282612d085760008555612d4f565b82601f10612d2157805160ff1916838001178555612d4f565b82800160010185558215612d4f579182015b82811115612d4e578251825591602001919060010190612d33565b5b509050612d5c9190612d60565b5090565b5b80821115612d79576000816000905550600101612d61565b5090565b6000612d90612d8b84613a29565b613a04565b905082815260208101848484011115612da857600080fd5b612db3848285613ca2565b509392505050565b6000612dce612dc984613a5a565b613a04565b905082815260208101848484011115612de657600080fd5b612df1848285613ca2565b509392505050565b600081359050612e088161444b565b92915050565b600081359050612e1d81614462565b92915050565b600081359050612e3281614479565b92915050565b600081519050612e4781614479565b92915050565b600082601f830112612e5e57600080fd5b8135612e6e848260208601612d7d565b91505092915050565b600082601f830112612e8857600080fd5b8135612e98848260208601612dbb565b91505092915050565b600081359050612eb081614490565b92915050565b600060208284031215612ec857600080fd5b6000612ed684828501612df9565b91505092915050565b60008060408385031215612ef257600080fd5b6000612f0085828601612df9565b9250506020612f1185828601612df9565b9150509250929050565b600080600060608486031215612f3057600080fd5b6000612f3e86828701612df9565b9350506020612f4f86828701612df9565b9250506040612f6086828701612ea1565b9150509250925092565b60008060008060808587031215612f8057600080fd5b6000612f8e87828801612df9565b9450506020612f9f87828801612df9565b9350506040612fb087828801612ea1565b925050606085013567ffffffffffffffff811115612fcd57600080fd5b612fd987828801612e4d565b91505092959194509250565b60008060408385031215612ff857600080fd5b600061300685828601612df9565b925050602061301785828601612e0e565b9150509250929050565b6000806040838503121561303457600080fd5b600061304285828601612df9565b925050602061305385828601612ea1565b9150509250929050565b60006020828403121561306f57600080fd5b600061307d84828501612e23565b91505092915050565b60006020828403121561309857600080fd5b60006130a684828501612e38565b91505092915050565b600080604083850312156130c257600080fd5b600083013567ffffffffffffffff8111156130dc57600080fd5b6130e885828601612e77565b92505060206130f985828601612ea1565b9150509250929050565b60006020828403121561311557600080fd5b600061312384828501612ea1565b91505092915050565b60006131388383613560565b60e08301905092915050565b61314d81613c2e565b82525050565b61315c81613c1c565b82525050565b600061316d82613a9b565b6131778185613ac9565b935061318283613a8b565b8060005b838110156131b357815161319a888261312c565b97506131a583613abc565b925050600181019050613186565b5085935050505092915050565b6131c981613c40565b82525050565b6131d881613c40565b82525050565b60006131e982613aa6565b6131f38185613ada565b9350613203818560208601613cb1565b61320c81613e7d565b840191505092915050565b600061322282613ab1565b61322c8185613aeb565b935061323c818560208601613cb1565b61324581613e7d565b840191505092915050565b600061325b82613ab1565b6132658185613afc565b9350613275818560208601613cb1565b80840191505092915050565b600061328e603283613aeb565b915061329982613e8e565b604082019050919050565b60006132b1601c83613aeb565b91506132bc82613edd565b602082019050919050565b60006132d4602483613aeb565b91506132df82613f06565b604082019050919050565b60006132f7601983613aeb565b915061330282613f55565b602082019050919050565b600061331a602c83613aeb565b915061332582613f7e565b604082019050919050565b600061333d603883613aeb565b915061334882613fcd565b604082019050919050565b6000613360602a83613aeb565b915061336b8261401c565b604082019050919050565b6000613383602983613aeb565b915061338e8261406b565b604082019050919050565b60006133a6602e83613aeb565b91506133b1826140ba565b604082019050919050565b60006133c9601583613aeb565b91506133d482614109565b602082019050919050565b60006133ec602083613aeb565b91506133f782614132565b602082019050919050565b600061340f603183613aeb565b915061341a8261415b565b604082019050919050565b6000613432602c83613aeb565b915061343d826141aa565b604082019050919050565b6000613455602983613aeb565b9150613460826141f9565b604082019050919050565b6000613478602f83613aeb565b915061348382614248565b604082019050919050565b600061349b605583613aeb565b91506134a682614297565b606082019050919050565b60006134be602883613aeb565b91506134c98261430c565b604082019050919050565b60006134e1602183613aeb565b91506134ec8261435b565b604082019050919050565b6000613504603183613aeb565b915061350f826143aa565b604082019050919050565b6000613527601183613aeb565b9150613532826143f9565b602082019050919050565b600061354a601f83613aeb565b915061355582614422565b602082019050919050565b60e08201600082015161357660008501826135ee565b50602082015161358960208501826135ee565b50604082015161359c6040850182613144565b5060608201516135af6060850182613144565b5060808201516135c260808501826135ee565b5060a08201516135d560a08501826131c0565b5060c08201516135e860c0850182613144565b50505050565b6135f781613c98565b82525050565b61360681613c98565b82525050565b60006136188285613250565b91506136248284613250565b91508190509392505050565b60006020820190506136456000830184613153565b92915050565b600060a0820190506136606000830188613153565b61366d6020830187613153565b61367a60408301866135fd565b61368760608301856131cf565b6136946080830184613153565b9695505050505050565b60006080820190506136b36000830187613153565b6136c06020830186613153565b6136cd60408301856135fd565b81810360608301526136df81846131de565b905095945050505050565b600060208201905081810360008301526137048184613162565b905092915050565b600060208201905061372160008301846131cf565b92915050565b600060208201905081810360008301526137418184613217565b905092915050565b6000602082019050818103600083015261376281613281565b9050919050565b60006020820190508181036000830152613782816132a4565b9050919050565b600060208201905081810360008301526137a2816132c7565b9050919050565b600060208201905081810360008301526137c2816132ea565b9050919050565b600060208201905081810360008301526137e28161330d565b9050919050565b6000602082019050818103600083015261380281613330565b9050919050565b6000602082019050818103600083015261382281613353565b9050919050565b6000602082019050818103600083015261384281613376565b9050919050565b6000602082019050818103600083015261386281613399565b9050919050565b60006020820190508181036000830152613882816133bc565b9050919050565b600060208201905081810360008301526138a2816133df565b9050919050565b600060208201905081810360008301526138c281613402565b9050919050565b600060208201905081810360008301526138e281613425565b9050919050565b6000602082019050818103600083015261390281613448565b9050919050565b600060208201905081810360008301526139228161346b565b9050919050565b600060208201905081810360008301526139428161348e565b9050919050565b60006020820190508181036000830152613962816134b1565b9050919050565b60006020820190508181036000830152613982816134d4565b9050919050565b600060208201905081810360008301526139a2816134f7565b9050919050565b600060208201905081810360008301526139c28161351a565b9050919050565b600060208201905081810360008301526139e28161353d565b9050919050565b60006020820190506139fe60008301846135fd565b92915050565b6000613a0e613a1f565b9050613a1a8282613d16565b919050565b6000604051905090565b600067ffffffffffffffff821115613a4457613a43613e4e565b5b613a4d82613e7d565b9050602081019050919050565b600067ffffffffffffffff821115613a7557613a74613e4e565b5b613a7e82613e7d565b9050602081019050919050565b6000819050602082019050919050565b600081519050919050565b600081519050919050565b600081519050919050565b6000602082019050919050565b600082825260208201905092915050565b600082825260208201905092915050565b600082825260208201905092915050565b600081905092915050565b6000613b1282613c98565b9150613b1d83613c98565b9250827fffffffffffffffffffffffffffffffffffffffffffffffffffffffffffffffff03821115613b5257613b51613dc1565b5b828201905092915050565b6000613b6882613c98565b9150613b7383613c98565b925082613b8357613b82613df0565b5b828204905092915050565b6000613b9982613c98565b9150613ba483613c98565b9250817fffffffffffffffffffffffffffffffffffffffffffffffffffffffffffffffff0483118215151615613bdd57613bdc613dc1565b5b828202905092915050565b6000613bf382613c98565b9150613bfe83613c98565b925082821015613c1157613c10613dc1565b5b828203905092915050565b6000613c2782613c78565b9050919050565b6000613c3982613c78565b9050919050565b60008115159050919050565b60007fffffffff0000000000000000000000000000000000000000000000000000000082169050919050565b600073ffffffffffffffffffffffffffffffffffffffff82169050919050565b6000819050919050565b82818337600083830152505050565b60005b83811015613ccf578082015181840152602081019050613cb4565b83811115613cde576000848401525b50505050565b60006002820490506001821680613cfc57607f821691505b60208210811415613d1057613d0f613e1f565b5b50919050565b613d1f82613e7d565b810181811067ffffffffffffffff82111715613d3e57613d3d613e4e565b5b80604052505050565b6000613d5282613c98565b91507fffffffffffffffffffffffffffffffffffffffffffffffffffffffffffffffff821415613d8557613d84613dc1565b5b600182019050919050565b6000613d9b82613c98565b9150613da683613c98565b925082613db657613db5613df0565b5b828206905092915050565b7f4e487b7100000000000000000000000000000000000000000000000000000000600052601160045260246000fd5b7f4e487b7100000000000000000000000000000000000000000000000000000000600052601260045260246000fd5b7f4e487b7100000000000000000000000000000000000000000000000000000000600052602260045260246000fd5b7f4e487b7100000000000000000000000000000000000000000000000000000000600052604160045260246000fd5b6000601f19601f8301169050919050565b7f4552433732313a207472616e7366657220746f206e6f6e20455243373231526560008201527f63656976657220696d706c656d656e7465720000000000000000000000000000602082015250565b7f4552433732313a20746f6b656e20616c7265616479206d696e74656400000000600082015250565b7f4552433732313a207472616e7366657220746f20746865207a65726f2061646460008201527f7265737300000000000000000000000000000000000000000000000000000000602082015250565b7f4552433732313a20617070726f766520746f2063616c6c657200000000000000600082015250565b7f4552433732313a206f70657261746f7220717565727920666f72206e6f6e657860008201527f697374656e7420746f6b656e0000000000000000000000000000000000000000602082015250565b7f4552433732313a20617070726f76652063616c6c6572206973206e6f74206f7760008201527f6e6572206e6f7220617070726f76656420666f7220616c6c0000000000000000602082015250565b7f4552433732313a2062616c616e636520717565727920666f7220746865207a6560008201527f726f206164647265737300000000000000000000000000000000000000000000602082015250565b7f4552433732313a206f776e657220717565727920666f72206e6f6e657869737460008201527f656e7420746f6b656e0000000000000000000000000000000000000000000000602082015250565b7f45524337323155524953746f726167653a2055524920736574206f66206e6f6e60008201527f6578697374656e7420746f6b656e000000000000000000000000000000000000602082015250565b7f796f7520617265206e6f7420746865206f776e65720000000000000000000000600082015250565b7f4552433732313a206d696e7420746f20746865207a65726f2061646472657373600082015250565b7f45524337323155524953746f726167653a2055524920717565727920666f722060008201527f6e6f6e6578697374656e7420746f6b656e000000000000000000000000000000602082015250565b7f4552433732313a20617070726f76656420717565727920666f72206e6f6e657860008201527f697374656e7420746f6b656e0000000000000000000000000000000000000000602082015250565b7f4552433732313a207472616e73666572206f6620746f6b656e2074686174206960008201527f73206e6f74206f776e0000000000000000000000000000000000000000000000602082015250565b7f4552433732314d657461646174613a2055524920717565727920666f72206e6f60008201527f6e6578697374656e7420746f6b656e0000000000000000000000000000000000602082015250565b7f506c65617365207375626d697420657175616c20746f206f722067726561746560008201527f72207468616e2061736b696e6720707269636520696e206f7264657220746f2060208201527f636f6d706c657465207468652070757263686173650000000000000000000000604082015250565b7f53656c6c69676e207072696365206d757374206265206772656174657220746860008201527f616e203020657468000000000000000000000000000000000000000000000000602082015250565b7f4552433732313a20617070726f76616c20746f2063757272656e74206f776e6560008201527f7200000000000000000000000000000000000000000000000000000000000000602082015250565b7f4552433732313a207472616e736665722063616c6c6572206973206e6f74206f60008201527f776e6572206e6f7220617070726f766564000000000000000000000000000000602082015250565b7f4974656d206e6f7420666f722073616c65000000000000000000000000000000600082015250565b7f5265656e7472616e637947756172643a207265656e7472616e742063616c6c00600082015250565b61445481613c1c565b811461445f57600080fd5b50565b61446b81613c40565b811461447657600080fd5b50565b61448281613c4c565b811461448d57600080fd5b50565b61449981613c98565b81146144a457600080fd5b5056fea26469706673582212209d41f5e0a5e12d697cbc8e26da8cf055c64d8c5f7fc74410ca84b9cd5831e26f64736f6c63430008040033",
  "linkReferences": {},
  "deployedLinkReferences": {}
}