{
  "_format": "hh-sol-artifact-1",
  "contractName": "NFT",
  "sourceName": "contracts/NFT.sol",
  "abi": [
    {
      "inputs": [],
      "stateMutability": "nonpayable",
      "type": "constructor"
    },
    {
      "anonymous": false,
      "inputs": [
        {
          "indexed": true,
          "internalType": "address",
          "name": "owner",
          "type": "address"
        },
        {
          "indexed": true,
          "internalType": "address",
          "name": "approved",
          "type": "address"
        },
        {
          "indexed": true,
          "internalType": "uint256",
          "name": "tokenId",
          "type": "uint256"
        }
      ],
      "name": "Approval",
      "type": "event"
    },
    {
      "anonymous": false,
      "inputs": [
        {
          "indexed": true,
          "internalType": "address",
          "name": "owner",
          "type": "address"
        },
        {
          "indexed": true,
          "internalType": "address",
          "name": "operator",
          "type": "address"
        },
        {
          "indexed": false,
          "internalType": "bool",
          "name": "approved",
          "type": "bool"
        }
      ],
      "name": "ApprovalForAll",
      "type": "event"
    },
    {
      "anonymous": false,
      "inputs": [
        {
          "indexed": true,
          "internalType": "uint256",
          "name": "tokenId",
          "type": "uint256"
        },
        {
          "indexed": false,
          "internalType": "address",
          "name": "owner",
          "type": "address"
        },
        {
          "indexed": false,
          "internalType": "uint256",
          "name": "price",
          "type": "uint256"
        },
        {
          "indexed": false,
          "internalType": "bool",
          "name": "sold",
          "type": "bool"
        },
        {
          "indexed": false,
          "internalType": "address",
          "name": "original_owner",
          "type": "address"
        }
      ],
      "name": "MarketItemCreated",
      "type": "event"
    },
    {
      "anonymous": false,
      "inputs": [
        {
          "indexed": true,
          "internalType": "address",
          "name": "from",
          "type": "address"
        },
        {
          "indexed": true,
          "internalType": "address",
          "name": "to",
          "type": "address"
        },
        {
          "indexed": true,
          "internalType": "uint256",
          "name": "tokenId",
          "type": "uint256"
        }
      ],
      "name": "Transfer",
      "type": "event"
    },
    {
      "inputs": [
        {
          "internalType": "address",
          "name": "to",
          "type": "address"
        },
        {
          "internalType": "uint256",
          "name": "tokenId",
          "type": "uint256"
        }
      ],
      "name": "approve",
      "outputs": [],
      "stateMutability": "nonpayable",
      "type": "function"
    },
    {
      "inputs": [
        {
          "internalType": "address",
          "name": "owner",
          "type": "address"
        }
      ],
      "name": "balanceOf",
      "outputs": [
        {
          "internalType": "uint256",
          "name": "",
          "type": "uint256"
        }
      ],
      "stateMutability": "view",
      "type": "function"
    },
    {
      "inputs": [
        {
          "internalType": "uint256",
          "name": "tokenID",
          "type": "uint256"
        }
      ],
      "name": "burn",
      "outputs": [],
      "stateMutability": "nonpayable",
      "type": "function"
    },
    {
      "inputs": [
        {
          "internalType": "uint256",
          "name": "itemId",
          "type": "uint256"
        }
      ],
      "name": "createMarketSale",
      "outputs": [],
      "stateMutability": "payable",
      "type": "function"
    },
    {
      "inputs": [
        {
          "internalType": "string",
          "name": "_tokenURI",
          "type": "string"
        },
        {
          "internalType": "uint256",
          "name": "price",
          "type": "uint256"
        }
      ],
      "name": "createToken",
      "outputs": [],
      "stateMutability": "payable",
      "type": "function"
    },
    {
      "inputs": [],
      "name": "fetchItemsCreated",
      "outputs": [
        {
          "components": [
            {
              "internalType": "uint256",
              "name": "tokenId",
              "type": "uint256"
            },
            {
              "internalType": "address payable",
              "name": "owner",
              "type": "address"
            },
            {
              "internalType": "uint256",
              "name": "price",
              "type": "uint256"
            },
            {
              "internalType": "bool",
              "name": "sold",
              "type": "bool"
            },
            {
              "internalType": "address payable",
              "name": "original_owner",
              "type": "address"
            }
          ],
          "internalType": "struct NFT.MarketItem[]",
          "name": "",
          "type": "tuple[]"
        }
      ],
      "stateMutability": "view",
      "type": "function"
    },
    {
      "inputs": [],
      "name": "fetchMarketItems",
      "outputs": [
        {
          "components": [
            {
              "internalType": "uint256",
              "name": "tokenId",
              "type": "uint256"
            },
            {
              "internalType": "address payable",
              "name": "owner",
              "type": "address"
            },
            {
              "internalType": "uint256",
              "name": "price",
              "type": "uint256"
            },
            {
              "internalType": "bool",
              "name": "sold",
              "type": "bool"
            },
            {
              "internalType": "address payable",
              "name": "original_owner",
              "type": "address"
            }
          ],
          "internalType": "struct NFT.MarketItem[]",
          "name": "",
          "type": "tuple[]"
        }
      ],
      "stateMutability": "view",
      "type": "function"
    },
    {
      "inputs": [],
      "name": "fetchMyNFTs",
      "outputs": [
        {
          "components": [
            {
              "internalType": "uint256",
              "name": "tokenId",
              "type": "uint256"
            },
            {
              "internalType": "address payable",
              "name": "owner",
              "type": "address"
            },
            {
              "internalType": "uint256",
              "name": "price",
              "type": "uint256"
            },
            {
              "internalType": "bool",
              "name": "sold",
              "type": "bool"
            },
            {
              "internalType": "address payable",
              "name": "original_owner",
              "type": "address"
            }
          ],
          "internalType": "struct NFT.MarketItem[]",
          "name": "",
          "type": "tuple[]"
        }
      ],
      "stateMutability": "view",
      "type": "function"
    },
    {
      "inputs": [
        {
          "internalType": "uint256",
          "name": "tokenId",
          "type": "uint256"
        }
      ],
      "name": "getApproved",
      "outputs": [
        {
          "internalType": "address",
          "name": "",
          "type": "address"
        }
      ],
      "stateMutability": "view",
      "type": "function"
    },
    {
      "inputs": [],
      "name": "getnetworkComission",
      "outputs": [
        {
          "internalType": "uint256",
          "name": "",
          "type": "uint256"
        }
      ],
      "stateMutability": "view",
      "type": "function"
    },
    {
      "inputs": [
        {
          "internalType": "address",
          "name": "owner",
          "type": "address"
        },
        {
          "internalType": "address",
          "name": "operator",
          "type": "address"
        }
      ],
      "name": "isApprovedForAll",
      "outputs": [
        {
          "internalType": "bool",
          "name": "",
          "type": "bool"
        }
      ],
      "stateMutability": "view",
      "type": "function"
    },
    {
      "inputs": [],
      "name": "name",
      "outputs": [
        {
          "internalType": "string",
          "name": "",
          "type": "string"
        }
      ],
      "stateMutability": "view",
      "type": "function"
    },
    {
      "inputs": [
        {
          "internalType": "uint256",
          "name": "tokenId",
          "type": "uint256"
        }
      ],
      "name": "ownerOf",
      "outputs": [
        {
          "internalType": "address",
          "name": "",
          "type": "address"
        }
      ],
      "stateMutability": "view",
      "type": "function"
    },
    {
      "inputs": [
        {
          "internalType": "address",
          "name": "from",
          "type": "address"
        },
        {
          "internalType": "address",
          "name": "to",
          "type": "address"
        },
        {
          "internalType": "uint256",
          "name": "tokenId",
          "type": "uint256"
        }
      ],
      "name": "safeTransferFrom",
      "outputs": [],
      "stateMutability": "nonpayable",
      "type": "function"
    },
    {
      "inputs": [
        {
          "internalType": "address",
          "name": "from",
          "type": "address"
        },
        {
          "internalType": "address",
          "name": "to",
          "type": "address"
        },
        {
          "internalType": "uint256",
          "name": "tokenId",
          "type": "uint256"
        },
        {
          "internalType": "bytes",
          "name": "_data",
          "type": "bytes"
        }
      ],
      "name": "safeTransferFrom",
      "outputs": [],
      "stateMutability": "nonpayable",
      "type": "function"
    },
    {
      "inputs": [
        {
          "internalType": "address",
          "name": "operator",
          "type": "address"
        },
        {
          "internalType": "bool",
          "name": "approved",
          "type": "bool"
        }
      ],
      "name": "setApprovalForAll",
      "outputs": [],
      "stateMutability": "nonpayable",
      "type": "function"
    },
    {
      "inputs": [
        {
          "internalType": "uint256",
          "name": "_networkComission",
          "type": "uint256"
        }
      ],
      "name": "setnetworkComission",
      "outputs": [],
      "stateMutability": "nonpayable",
      "type": "function"
    },
    {
      "inputs": [
        {
          "internalType": "bytes4",
          "name": "interfaceId",
          "type": "bytes4"
        }
      ],
      "name": "supportsInterface",
      "outputs": [
        {
          "internalType": "bool",
          "name": "",
          "type": "bool"
        }
      ],
      "stateMutability": "view",
      "type": "function"
    },
    {
      "inputs": [],
      "name": "symbol",
      "outputs": [
        {
          "internalType": "string",
          "name": "",
          "type": "string"
        }
      ],
      "stateMutability": "view",
      "type": "function"
    },
    {
      "inputs": [
        {
          "internalType": "uint256",
          "name": "tokenId",
          "type": "uint256"
        }
      ],
      "name": "tokenURI",
      "outputs": [
        {
          "internalType": "string",
          "name": "",
          "type": "string"
        }
      ],
      "stateMutability": "view",
      "type": "function"
    },
    {
      "inputs": [
        {
          "internalType": "address",
          "name": "from",
          "type": "address"
        },
        {
          "internalType": "address",
          "name": "to",
          "type": "address"
        },
        {
          "internalType": "uint256",
          "name": "tokenId",
          "type": "uint256"
        }
      ],
      "name": "transferFrom",
      "outputs": [],
      "stateMutability": "nonpayable",
      "type": "function"
    }
  ],
  "bytecode": "0x60806040526001600b556002600c553480156200001b57600080fd5b506040518060400160405280600d81526020017f556e6e616d656420546f6b656e000000000000000000000000000000000000008152506040518060400160405280600481526020017f554e544b000000000000000000000000000000000000000000000000000000008152508160009080519060200190620000a09291906200010b565b508060019080519060200190620000b99291906200010b565b505050600160078190555033600a60006101000a81548173ffffffffffffffffffffffffffffffffffffffff021916908373ffffffffffffffffffffffffffffffffffffffff16021790555062000220565b8280546200011990620001bb565b90600052602060002090601f0160209004810192826200013d576000855562000189565b82601f106200015857805160ff191683800117855562000189565b8280016001018555821562000189579182015b82811115620001885782518255916020019190600101906200016b565b5b5090506200019891906200019c565b5090565b5b80821115620001b75760008160009055506001016200019d565b5090565b60006002820490506001821680620001d457607f821691505b60208210811415620001eb57620001ea620001f1565b5b50919050565b7f4e487b7100000000000000000000000000000000000000000000000000000000600052602260045260246000fd5b6144b980620002306000396000f3fe60806040526004361061012a5760003560e01c80636352211e116100ab578063a22cb4651161006f578063a22cb465146103e3578063b88d4fde1461040c578063be9af53614610435578063c87b56dd14610451578063e985e9c51461048e578063f064c32e146104cb5761012a565b80636352211e146102f757806370a082311461033457806372b3b620146103715780638d7003d11461038d57806395d89b41146103b85761012a565b8063202e3740116100f2578063202e37401461022857806323b872dd146102535780632d08737b1461027c57806342842e0e146102a557806342966c68146102ce5761012a565b806301ffc9a71461012f57806306fdde031461016c578063081812fc14610197578063095ea7b3146101d45780630f08efe0146101fd575b600080fd5b34801561013b57600080fd5b5061015660048036038101906101519190612f95565b6104f6565b6040516101639190613656565b60405180910390f35b34801561017857600080fd5b506101816105d8565b60405161018e9190613671565b60405180910390f35b3480156101a357600080fd5b506101be60048036038101906101b9919061303b565b61066a565b6040516101cb9190613588565b60405180910390f35b3480156101e057600080fd5b506101fb60048036038101906101f69190612f59565b6106ef565b005b34801561020957600080fd5b50610212610807565b60405161021f9190613634565b60405180910390f35b34801561023457600080fd5b5061023d610a82565b60405161024a9190613634565b60405180910390f35b34801561025f57600080fd5b5061027a60048036038101906102759190612e53565b610dbc565b005b34801561028857600080fd5b506102a3600480360381019061029e919061303b565b610e1c565b005b3480156102b157600080fd5b506102cc60048036038101906102c79190612e53565b610eec565b005b3480156102da57600080fd5b506102f560048036038101906102f0919061303b565b610f0c565b005b34801561030357600080fd5b5061031e6004803603810190610319919061303b565b610fbc565b60405161032b9190613588565b60405180910390f35b34801561034057600080fd5b5061035b60048036038101906103569190612dee565b61106e565b6040516103689190613973565b60405180910390f35b61038b60048036038101906103869190612fe7565b611126565b005b34801561039957600080fd5b506103a261135e565b6040516103af9190613973565b60405180910390f35b3480156103c457600080fd5b506103cd611368565b6040516103da9190613671565b60405180910390f35b3480156103ef57600080fd5b5061040a60048036038101906104059190612f1d565b6113fa565b005b34801561041857600080fd5b50610433600480360381019061042e9190612ea2565b611410565b005b61044f600480360381019061044a919061303b565b611472565b005b34801561045d57600080fd5b506104786004803603810190610473919061303b565b6117d7565b6040516104859190613671565b60405180910390f35b34801561049a57600080fd5b506104b560048036038101906104b09190612e17565b611929565b6040516104c29190613656565b60405180910390f35b3480156104d757600080fd5b506104e06119bd565b6040516104ed9190613634565b60405180910390f35b60007f80ac58cd000000000000000000000000000000000000000000000000000000007bffffffffffffffffffffffffffffffffffffffffffffffffffffffff1916827bffffffffffffffffffffffffffffffffffffffffffffffffffffffff191614806105c157507f5b5e139f000000000000000000000000000000000000000000000000000000007bffffffffffffffffffffffffffffffffffffffffffffffffffffffff1916827bffffffffffffffffffffffffffffffffffffffffffffffffffffffff1916145b806105d157506105d082611cf7565b5b9050919050565b6060600080546105e790613c6e565b80601f016020809104026020016040519081016040528092919081815260200182805461061390613c6e565b80156106605780601f1061063557610100808354040283529160200191610660565b820191906000526020600020905b81548152906001019060200180831161064357829003601f168201915b5050505050905090565b600061067582611d61565b6106b4576040517f08c379a00000000000000000000000000000000000000000000000000000000081526004016106ab90613833565b60405180910390fd5b6004600083815260200190815260200160002060009054906101000a900473ffffffffffffffffffffffffffffffffffffffff169050919050565b60006106fa82610fbc565b90508073ffffffffffffffffffffffffffffffffffffffff168373ffffffffffffffffffffffffffffffffffffffff16141561076b576040517f08c379a0000000000000000000000000000000000000000000000000000000008152600401610762906138f3565b60405180910390fd5b8073ffffffffffffffffffffffffffffffffffffffff1661078a611dcd565b73ffffffffffffffffffffffffffffffffffffffff1614806107b957506107b8816107b3611dcd565b611929565b5b6107f8576040517f08c379a00000000000000000000000000000000000000000000000000000000081526004016107ef90613753565b60405180910390fd5b6108028383611dd5565b505050565b606060006108156008611e8e565b905060006108236009611e8e565b61082d6008611e8e565b6108379190613b72565b90506000808267ffffffffffffffff81111561087c577f4e487b7100000000000000000000000000000000000000000000000000000000600052604160045260246000fd5b6040519080825280602002602001820160405280156108b557816020015b6108a2612b75565b81526020019060019003908161089a5790505b50905060005b84811015610a775760001515600d60006001846108d89190613a91565b815260200190815260200160002060030160009054906101000a900460ff1615151415610a6457600060018261090e9190613a91565b90506000600d60008381526020019081526020016000209050806040518060a0016040529081600082015481526020016001820160009054906101000a900473ffffffffffffffffffffffffffffffffffffffff1673ffffffffffffffffffffffffffffffffffffffff1673ffffffffffffffffffffffffffffffffffffffff168152602001600282015481526020016003820160009054906101000a900460ff161515151581526020016003820160019054906101000a900473ffffffffffffffffffffffffffffffffffffffff1673ffffffffffffffffffffffffffffffffffffffff1673ffffffffffffffffffffffffffffffffffffffff1681525050848681518110610a47577f4e487b7100000000000000000000000000000000000000000000000000000000600052603260045260246000fd5b6020026020010181905250600185610a5f9190613a91565b945050505b8080610a6f90613cd1565b9150506108bb565b508094505050505090565b60606000610a906008611e8e565b905060008060005b83811015610b39573373ffffffffffffffffffffffffffffffffffffffff16600d6000600184610ac89190613a91565b815260200190815260200160002060010160009054906101000a900473ffffffffffffffffffffffffffffffffffffffff1673ffffffffffffffffffffffffffffffffffffffff161415610b2657600183610b239190613a91565b92505b8080610b3190613cd1565b915050610a98565b5060008267ffffffffffffffff811115610b7c577f4e487b7100000000000000000000000000000000000000000000000000000000600052604160045260246000fd5b604051908082528060200260200182016040528015610bb557816020015b610ba2612b75565b815260200190600190039081610b9a5790505b50905060005b84811015610db1573373ffffffffffffffffffffffffffffffffffffffff16600d6000600184610beb9190613a91565b815260200190815260200160002060010160009054906101000a900473ffffffffffffffffffffffffffffffffffffffff1673ffffffffffffffffffffffffffffffffffffffff161415610d9e576000600182610c489190613a91565b90506000600d60008381526020019081526020016000209050806040518060a0016040529081600082015481526020016001820160009054906101000a900473ffffffffffffffffffffffffffffffffffffffff1673ffffffffffffffffffffffffffffffffffffffff1673ffffffffffffffffffffffffffffffffffffffff168152602001600282015481526020016003820160009054906101000a900460ff161515151581526020016003820160019054906101000a900473ffffffffffffffffffffffffffffffffffffffff1673ffffffffffffffffffffffffffffffffffffffff1673ffffffffffffffffffffffffffffffffffffffff1681525050848681518110610d81577f4e487b7100000000000000000000000000000000000000000000000000000000600052603260045260246000fd5b6020026020010181905250600185610d999190613a91565b945050505b8080610da990613cd1565b915050610bbb565b508094505050505090565b610dcd610dc7611dcd565b82611e9c565b610e0c576040517f08c379a0000000000000000000000000000000000000000000000000000000008152600401610e0390613913565b60405180910390fd5b610e17838383611f7a565b505050565b732e6102ca1e020bfd044a3cb54540f84dcb4eaf0273ffffffffffffffffffffffffffffffffffffffff163373ffffffffffffffffffffffffffffffffffffffff1614610e9e576040517f08c379a0000000000000000000000000000000000000000000000000000000008152600401610e9590613693565b60405180910390fd5b600a811115610ee2576040517f08c379a0000000000000000000000000000000000000000000000000000000008152600401610ed990613853565b60405180910390fd5b80600b8190555050565b610f0783838360405180602001604052806000815250611410565b505050565b600d600082815260200190815260200160002060010160009054906101000a900473ffffffffffffffffffffffffffffffffffffffff1673ffffffffffffffffffffffffffffffffffffffff163373ffffffffffffffffffffffffffffffffffffffff1614610fb0576040517f08c379a0000000000000000000000000000000000000000000000000000000008152600401610fa7906137d3565b60405180910390fd5b610fb9816121d6565b50565b6000806002600084815260200190815260200160002060009054906101000a900473ffffffffffffffffffffffffffffffffffffffff169050600073ffffffffffffffffffffffffffffffffffffffff168173ffffffffffffffffffffffffffffffffffffffff161415611065576040517f08c379a000000000000000000000000000000000000000000000000000000000815260040161105c90613793565b60405180910390fd5b80915050919050565b60008073ffffffffffffffffffffffffffffffffffffffff168273ffffffffffffffffffffffffffffffffffffffff1614156110df576040517f08c379a00000000000000000000000000000000000000000000000000000000081526004016110d690613773565b60405180910390fd5b600360008373ffffffffffffffffffffffffffffffffffffffff1673ffffffffffffffffffffffffffffffffffffffff168152602001908152602001600020549050919050565b6002600754141561116c576040517f08c379a000000000000000000000000000000000000000000000000000000000815260040161116390613953565b60405180910390fd5b600260078190555061117e6008612229565b600061118a6008611e8e565b9050611196308261223f565b6111a0818461240d565b60008210156111e4576040517f08c379a00000000000000000000000000000000000000000000000000000000081526004016111db906138d3565b60405180910390fd5b6040518060a001604052808281526020013373ffffffffffffffffffffffffffffffffffffffff1681526020018381526020016000151581526020013373ffffffffffffffffffffffffffffffffffffffff16815250600d60008381526020019081526020016000206000820151816000015560208201518160010160006101000a81548173ffffffffffffffffffffffffffffffffffffffff021916908373ffffffffffffffffffffffffffffffffffffffff1602179055506040820151816002015560608201518160030160006101000a81548160ff02191690831515021790555060808201518160030160016101000a81548173ffffffffffffffffffffffffffffffffffffffff021916908373ffffffffffffffffffffffffffffffffffffffff160217905550905050807f30c45af8916d26c5896594b78343d58a9eebfd88f75b4cee41314e24a268fc6e338460003360405161134994939291906135ef565b60405180910390a25060016007819055505050565b6000600b54905090565b60606001805461137790613c6e565b80601f01602080910402602001604051908101604052809291908181526020018280546113a390613c6e565b80156113f05780601f106113c5576101008083540402835291602001916113f0565b820191906000526020600020905b8154815290600101906020018083116113d357829003601f168201915b5050505050905090565b61140c611405611dcd565b8383612481565b5050565b61142161141b611dcd565b83611e9c565b611460576040517f08c379a000000000000000000000000000000000000000000000000000000000815260040161145790613913565b60405180910390fd5b61146c848484846125ee565b50505050565b600260075414156114b8576040517f08c379a00000000000000000000000000000000000000000000000000000000081526004016114af90613953565b60405180910390fd5b60026007819055506000600d60008381526020019081526020016000206002015490506000600d600084815260200190815260200160002060030160019054906101000a900473ffffffffffffffffffffffffffffffffffffffff16905060001515600d600085815260200190815260200160002060030160009054906101000a900460ff16151514611580576040517f08c379a000000000000000000000000000000000000000000000000000000000815260040161157790613933565b60405180910390fd5b813410156115c3576040517f08c379a00000000000000000000000000000000000000000000000000000000081526004016115ba906138b3565b60405180910390fd5b600034905060006064346115d79190613ae7565b90506000600b54826115e99190613b18565b90506000600c54836115fb9190613b18565b905081846116099190613b72565b935080846116179190613b72565b9350600d600088815260200190815260200160002060010160009054906101000a900473ffffffffffffffffffffffffffffffffffffffff1673ffffffffffffffffffffffffffffffffffffffff166108fc859081150290604051600060405180830381858888f19350505050158015611695573d6000803e3d6000fd5b5033600d600089815260200190815260200160002060010160006101000a81548173ffffffffffffffffffffffffffffffffffffffff021916908373ffffffffffffffffffffffffffffffffffffffff1602179055506001600d600089815260200190815260200160002060030160006101000a81548160ff0219169083151502179055506117246009612229565b732e6102ca1e020bfd044a3cb54540f84dcb4eaf0273ffffffffffffffffffffffffffffffffffffffff166108fc839081150290604051600060405180830381858888f1935050505015801561177e573d6000803e3d6000fd5b508473ffffffffffffffffffffffffffffffffffffffff166108fc829081150290604051600060405180830381858888f193505050501580156117c5573d6000803e3d6000fd5b50505050505050600160078190555050565b60606117e282611d61565b611821576040517f08c379a000000000000000000000000000000000000000000000000000000000815260040161181890613813565b60405180910390fd5b600060066000848152602001908152602001600020805461184190613c6e565b80601f016020809104026020016040519081016040528092919081815260200182805461186d90613c6e565b80156118ba5780601f1061188f576101008083540402835291602001916118ba565b820191906000526020600020905b81548152906001019060200180831161189d57829003601f168201915b5050505050905060006118cb61264a565b90506000815114156118e1578192505050611924565b6000825111156119165780826040516020016118fe929190613564565b60405160208183030381529060405292505050611924565b61191f84612661565b925050505b919050565b6000600560008473ffffffffffffffffffffffffffffffffffffffff1673ffffffffffffffffffffffffffffffffffffffff16815260200190815260200160002060008373ffffffffffffffffffffffffffffffffffffffff1673ffffffffffffffffffffffffffffffffffffffff16815260200190815260200160002060009054906101000a900460ff16905092915050565b606060006119cb6008611e8e565b905060008060005b83811015611a74573373ffffffffffffffffffffffffffffffffffffffff16600d6000600184611a039190613a91565b815260200190815260200160002060010160009054906101000a900473ffffffffffffffffffffffffffffffffffffffff1673ffffffffffffffffffffffffffffffffffffffff161415611a6157600183611a5e9190613a91565b92505b8080611a6c90613cd1565b9150506119d3565b5060008267ffffffffffffffff811115611ab7577f4e487b7100000000000000000000000000000000000000000000000000000000600052604160045260246000fd5b604051908082528060200260200182016040528015611af057816020015b611add612b75565b815260200190600190039081611ad55790505b50905060005b84811015611cec573373ffffffffffffffffffffffffffffffffffffffff16600d6000600184611b269190613a91565b815260200190815260200160002060010160009054906101000a900473ffffffffffffffffffffffffffffffffffffffff1673ffffffffffffffffffffffffffffffffffffffff161415611cd9576000600182611b839190613a91565b90506000600d60008381526020019081526020016000209050806040518060a0016040529081600082015481526020016001820160009054906101000a900473ffffffffffffffffffffffffffffffffffffffff1673ffffffffffffffffffffffffffffffffffffffff1673ffffffffffffffffffffffffffffffffffffffff168152602001600282015481526020016003820160009054906101000a900460ff161515151581526020016003820160019054906101000a900473ffffffffffffffffffffffffffffffffffffffff1673ffffffffffffffffffffffffffffffffffffffff1673ffffffffffffffffffffffffffffffffffffffff1681525050848681518110611cbc577f4e487b7100000000000000000000000000000000000000000000000000000000600052603260045260246000fd5b6020026020010181905250600185611cd49190613a91565b945050505b8080611ce490613cd1565b915050611af6565b508094505050505090565b60007f01ffc9a7000000000000000000000000000000000000000000000000000000007bffffffffffffffffffffffffffffffffffffffffffffffffffffffff1916827bffffffffffffffffffffffffffffffffffffffffffffffffffffffff1916149050919050565b60008073ffffffffffffffffffffffffffffffffffffffff166002600084815260200190815260200160002060009054906101000a900473ffffffffffffffffffffffffffffffffffffffff1673ffffffffffffffffffffffffffffffffffffffff1614159050919050565b600033905090565b816004600083815260200190815260200160002060006101000a81548173ffffffffffffffffffffffffffffffffffffffff021916908373ffffffffffffffffffffffffffffffffffffffff160217905550808273ffffffffffffffffffffffffffffffffffffffff16611e4883610fbc565b73ffffffffffffffffffffffffffffffffffffffff167f8c5be1e5ebec7d5bd14f71427d1e84f3dd0314c0f7b2291e5b200ac8c7c3b92560405160405180910390a45050565b600081600001549050919050565b6000611ea782611d61565b611ee6576040517f08c379a0000000000000000000000000000000000000000000000000000000008152600401611edd90613733565b60405180910390fd5b6000611ef183610fbc565b90508073ffffffffffffffffffffffffffffffffffffffff168473ffffffffffffffffffffffffffffffffffffffff161480611f6057508373ffffffffffffffffffffffffffffffffffffffff16611f488461066a565b73ffffffffffffffffffffffffffffffffffffffff16145b80611f715750611f708185611929565b5b91505092915050565b8273ffffffffffffffffffffffffffffffffffffffff16611f9a82610fbc565b73ffffffffffffffffffffffffffffffffffffffff1614611ff0576040517f08c379a0000000000000000000000000000000000000000000000000000000008152600401611fe790613873565b60405180910390fd5b600073ffffffffffffffffffffffffffffffffffffffff168273ffffffffffffffffffffffffffffffffffffffff161415612060576040517f08c379a0000000000000000000000000000000000000000000000000000000008152600401612057906136f3565b60405180910390fd5b61206b838383612708565b612076600082611dd5565b6001600360008573ffffffffffffffffffffffffffffffffffffffff1673ffffffffffffffffffffffffffffffffffffffff16815260200190815260200160002060008282546120c69190613b72565b925050819055506001600360008473ffffffffffffffffffffffffffffffffffffffff1673ffffffffffffffffffffffffffffffffffffffff168152602001908152602001600020600082825461211d9190613a91565b92505081905550816002600083815260200190815260200160002060006101000a81548173ffffffffffffffffffffffffffffffffffffffff021916908373ffffffffffffffffffffffffffffffffffffffff160217905550808273ffffffffffffffffffffffffffffffffffffffff168473ffffffffffffffffffffffffffffffffffffffff167fddf252ad1be2c89b69c2b068fc378daa952ba7f163c4a11628f55a4df523b3ef60405160405180910390a4505050565b6121df8161270d565b60006006600083815260200190815260200160002080546121ff90613c6e565b905014612226576006600082815260200190815260200160002060006122259190612bd2565b5b50565b6001816000016000828254019250508190555050565b600073ffffffffffffffffffffffffffffffffffffffff168273ffffffffffffffffffffffffffffffffffffffff1614156122af576040517f08c379a00000000000000000000000000000000000000000000000000000000081526004016122a6906137f3565b60405180910390fd5b6122b881611d61565b156122f8576040517f08c379a00000000000000000000000000000000000000000000000000000000081526004016122ef906136d3565b60405180910390fd5b61230460008383612708565b6001600360008473ffffffffffffffffffffffffffffffffffffffff1673ffffffffffffffffffffffffffffffffffffffff16815260200190815260200160002060008282546123549190613a91565b92505081905550816002600083815260200190815260200160002060006101000a81548173ffffffffffffffffffffffffffffffffffffffff021916908373ffffffffffffffffffffffffffffffffffffffff160217905550808273ffffffffffffffffffffffffffffffffffffffff16600073ffffffffffffffffffffffffffffffffffffffff167fddf252ad1be2c89b69c2b068fc378daa952ba7f163c4a11628f55a4df523b3ef60405160405180910390a45050565b61241682611d61565b612455576040517f08c379a000000000000000000000000000000000000000000000000000000000815260040161244c906137b3565b60405180910390fd5b8060066000848152602001908152602001600020908051906020019061247c929190612c12565b505050565b8173ffffffffffffffffffffffffffffffffffffffff168373ffffffffffffffffffffffffffffffffffffffff1614156124f0576040517f08c379a00000000000000000000000000000000000000000000000000000000081526004016124e790613713565b60405180910390fd5b80600560008573ffffffffffffffffffffffffffffffffffffffff1673ffffffffffffffffffffffffffffffffffffffff16815260200190815260200160002060008473ffffffffffffffffffffffffffffffffffffffff1673ffffffffffffffffffffffffffffffffffffffff16815260200190815260200160002060006101000a81548160ff0219169083151502179055508173ffffffffffffffffffffffffffffffffffffffff168373ffffffffffffffffffffffffffffffffffffffff167f17307eab39ab6107e8899845ad3d59bd9653f200f220920489ca2b5937696c31836040516125e19190613656565b60405180910390a3505050565b6125f9848484611f7a565b6126058484848461281e565b612644576040517f08c379a000000000000000000000000000000000000000000000000000000000815260040161263b906136b3565b60405180910390fd5b50505050565b606060405180602001604052806000815250905090565b606061266c82611d61565b6126ab576040517f08c379a00000000000000000000000000000000000000000000000000000000081526004016126a290613893565b60405180910390fd5b60006126b561264a565b905060008151116126d55760405180602001604052806000815250612700565b806126df846129b5565b6040516020016126f0929190613564565b6040516020818303038152906040525b915050919050565b505050565b600061271882610fbc565b905061272681600084612708565b612731600083611dd5565b6001600360008373ffffffffffffffffffffffffffffffffffffffff1673ffffffffffffffffffffffffffffffffffffffff16815260200190815260200160002060008282546127819190613b72565b925050819055506002600083815260200190815260200160002060006101000a81549073ffffffffffffffffffffffffffffffffffffffff021916905581600073ffffffffffffffffffffffffffffffffffffffff168273ffffffffffffffffffffffffffffffffffffffff167fddf252ad1be2c89b69c2b068fc378daa952ba7f163c4a11628f55a4df523b3ef60405160405180910390a45050565b600061283f8473ffffffffffffffffffffffffffffffffffffffff16612b62565b156129a8578373ffffffffffffffffffffffffffffffffffffffff1663150b7a02612868611dcd565b8786866040518563ffffffff1660e01b815260040161288a94939291906135a3565b602060405180830381600087803b1580156128a457600080fd5b505af19250505080156128d557506040513d601f19601f820116820180604052508101906128d29190612fbe565b60015b612958573d8060008114612905576040519150601f19603f3d011682016040523d82523d6000602084013e61290a565b606091505b50600081511415612950576040517f08c379a0000000000000000000000000000000000000000000000000000000008152600401612947906136b3565b60405180910390fd5b805181602001fd5b63150b7a0260e01b7bffffffffffffffffffffffffffffffffffffffffffffffffffffffff1916817bffffffffffffffffffffffffffffffffffffffffffffffffffffffff1916149150506129ad565b600190505b949350505050565b606060008214156129fd576040518060400160405280600181526020017f30000000000000000000000000000000000000000000000000000000000000008152509050612b5d565b600082905060005b60008214612a2f578080612a1890613cd1565b915050600a82612a289190613ae7565b9150612a05565b60008167ffffffffffffffff811115612a71577f4e487b7100000000000000000000000000000000000000000000000000000000600052604160045260246000fd5b6040519080825280601f01601f191660200182016040528015612aa35781602001600182028036833780820191505090505b5090505b60008514612b5657600182612abc9190613b72565b9150600a85612acb9190613d1a565b6030612ad79190613a91565b60f81b818381518110612b13577f4e487b7100000000000000000000000000000000000000000000000000000000600052603260045260246000fd5b60200101907effffffffffffffffffffffffffffffffffffffffffffffffffffffffffffff1916908160001a905350600a85612b4f9190613ae7565b9450612aa7565b8093505050505b919050565b600080823b905060008111915050919050565b6040518060a0016040528060008152602001600073ffffffffffffffffffffffffffffffffffffffff16815260200160008152602001600015158152602001600073ffffffffffffffffffffffffffffffffffffffff1681525090565b508054612bde90613c6e565b6000825580601f10612bf05750612c0f565b601f016020900490600052602060002090810190612c0e9190612c98565b5b50565b828054612c1e90613c6e565b90600052602060002090601f016020900481019282612c405760008555612c87565b82601f10612c5957805160ff1916838001178555612c87565b82800160010185558215612c87579182015b82811115612c86578251825591602001919060010190612c6b565b5b509050612c949190612c98565b5090565b5b80821115612cb1576000816000905550600101612c99565b5090565b6000612cc8612cc3846139b3565b61398e565b905082815260208101848484011115612ce057600080fd5b612ceb848285613c2c565b509392505050565b6000612d06612d01846139e4565b61398e565b905082815260208101848484011115612d1e57600080fd5b612d29848285613c2c565b509392505050565b600081359050612d4081614427565b92915050565b600081359050612d558161443e565b92915050565b600081359050612d6a81614455565b92915050565b600081519050612d7f81614455565b92915050565b600082601f830112612d9657600080fd5b8135612da6848260208601612cb5565b91505092915050565b600082601f830112612dc057600080fd5b8135612dd0848260208601612cf3565b91505092915050565b600081359050612de88161446c565b92915050565b600060208284031215612e0057600080fd5b6000612e0e84828501612d31565b91505092915050565b60008060408385031215612e2a57600080fd5b6000612e3885828601612d31565b9250506020612e4985828601612d31565b9150509250929050565b600080600060608486031215612e6857600080fd5b6000612e7686828701612d31565b9350506020612e8786828701612d31565b9250506040612e9886828701612dd9565b9150509250925092565b60008060008060808587031215612eb857600080fd5b6000612ec687828801612d31565b9450506020612ed787828801612d31565b9350506040612ee887828801612dd9565b925050606085013567ffffffffffffffff811115612f0557600080fd5b612f1187828801612d85565b91505092959194509250565b60008060408385031215612f3057600080fd5b6000612f3e85828601612d31565b9250506020612f4f85828601612d46565b9150509250929050565b60008060408385031215612f6c57600080fd5b6000612f7a85828601612d31565b9250506020612f8b85828601612dd9565b9150509250929050565b600060208284031215612fa757600080fd5b6000612fb584828501612d5b565b91505092915050565b600060208284031215612fd057600080fd5b6000612fde84828501612d70565b91505092915050565b60008060408385031215612ffa57600080fd5b600083013567ffffffffffffffff81111561301457600080fd5b61302085828601612daf565b925050602061303185828601612dd9565b9150509250929050565b60006020828403121561304d57600080fd5b600061305b84828501612dd9565b91505092915050565b600061307083836134de565b60a08301905092915050565b61308581613bb8565b82525050565b61309481613ba6565b82525050565b60006130a582613a25565b6130af8185613a53565b93506130ba83613a15565b8060005b838110156130eb5781516130d28882613064565b97506130dd83613a46565b9250506001810190506130be565b5085935050505092915050565b61310181613bca565b82525050565b61311081613bca565b82525050565b600061312182613a30565b61312b8185613a64565b935061313b818560208601613c3b565b61314481613e07565b840191505092915050565b600061315a82613a3b565b6131648185613a75565b9350613174818560208601613c3b565b61317d81613e07565b840191505092915050565b600061319382613a3b565b61319d8185613a86565b93506131ad818560208601613c3b565b80840191505092915050565b60006131c6602083613a75565b91506131d182613e18565b602082019050919050565b60006131e9603283613a75565b91506131f482613e41565b604082019050919050565b600061320c601c83613a75565b915061321782613e90565b602082019050919050565b600061322f602483613a75565b915061323a82613eb9565b604082019050919050565b6000613252601983613a75565b915061325d82613f08565b602082019050919050565b6000613275602c83613a75565b915061328082613f31565b604082019050919050565b6000613298603883613a75565b91506132a382613f80565b604082019050919050565b60006132bb602a83613a75565b91506132c682613fcf565b604082019050919050565b60006132de602983613a75565b91506132e98261401e565b604082019050919050565b6000613301602e83613a75565b915061330c8261406d565b604082019050919050565b6000613324601583613a75565b915061332f826140bc565b602082019050919050565b6000613347602083613a75565b9150613352826140e5565b602082019050919050565b600061336a603183613a75565b91506133758261410e565b604082019050919050565b600061338d602c83613a75565b91506133988261415d565b604082019050919050565b60006133b0601783613a75565b91506133bb826141ac565b602082019050919050565b60006133d3602983613a75565b91506133de826141d5565b604082019050919050565b60006133f6602f83613a75565b915061340182614224565b604082019050919050565b6000613419605583613a75565b915061342482614273565b606082019050919050565b600061343c602883613a75565b9150613447826142e8565b604082019050919050565b600061345f602183613a75565b915061346a82614337565b604082019050919050565b6000613482603183613a75565b915061348d82614386565b604082019050919050565b60006134a5601183613a75565b91506134b0826143d5565b602082019050919050565b60006134c8601f83613a75565b91506134d3826143fe565b602082019050919050565b60a0820160008201516134f46000850182613546565b506020820151613507602085018261307c565b50604082015161351a6040850182613546565b50606082015161352d60608501826130f8565b506080820151613540608085018261307c565b50505050565b61354f81613c22565b82525050565b61355e81613c22565b82525050565b60006135708285613188565b915061357c8284613188565b91508190509392505050565b600060208201905061359d600083018461308b565b92915050565b60006080820190506135b8600083018761308b565b6135c5602083018661308b565b6135d26040830185613555565b81810360608301526135e48184613116565b905095945050505050565b6000608082019050613604600083018761308b565b6136116020830186613555565b61361e6040830185613107565b61362b606083018461308b565b95945050505050565b6000602082019050818103600083015261364e818461309a565b905092915050565b600060208201905061366b6000830184613107565b92915050565b6000602082019050818103600083015261368b818461314f565b905092915050565b600060208201905081810360008301526136ac816131b9565b9050919050565b600060208201905081810360008301526136cc816131dc565b9050919050565b600060208201905081810360008301526136ec816131ff565b9050919050565b6000602082019050818103600083015261370c81613222565b9050919050565b6000602082019050818103600083015261372c81613245565b9050919050565b6000602082019050818103600083015261374c81613268565b9050919050565b6000602082019050818103600083015261376c8161328b565b9050919050565b6000602082019050818103600083015261378c816132ae565b9050919050565b600060208201905081810360008301526137ac816132d1565b9050919050565b600060208201905081810360008301526137cc816132f4565b9050919050565b600060208201905081810360008301526137ec81613317565b9050919050565b6000602082019050818103600083015261380c8161333a565b9050919050565b6000602082019050818103600083015261382c8161335d565b9050919050565b6000602082019050818103600083015261384c81613380565b9050919050565b6000602082019050818103600083015261386c816133a3565b9050919050565b6000602082019050818103600083015261388c816133c6565b9050919050565b600060208201905081810360008301526138ac816133e9565b9050919050565b600060208201905081810360008301526138cc8161340c565b9050919050565b600060208201905081810360008301526138ec8161342f565b9050919050565b6000602082019050818103600083015261390c81613452565b9050919050565b6000602082019050818103600083015261392c81613475565b9050919050565b6000602082019050818103600083015261394c81613498565b9050919050565b6000602082019050818103600083015261396c816134bb565b9050919050565b60006020820190506139886000830184613555565b92915050565b60006139986139a9565b90506139a48282613ca0565b919050565b6000604051905090565b600067ffffffffffffffff8211156139ce576139cd613dd8565b5b6139d782613e07565b9050602081019050919050565b600067ffffffffffffffff8211156139ff576139fe613dd8565b5b613a0882613e07565b9050602081019050919050565b6000819050602082019050919050565b600081519050919050565b600081519050919050565b600081519050919050565b6000602082019050919050565b600082825260208201905092915050565b600082825260208201905092915050565b600082825260208201905092915050565b600081905092915050565b6000613a9c82613c22565b9150613aa783613c22565b9250827fffffffffffffffffffffffffffffffffffffffffffffffffffffffffffffffff03821115613adc57613adb613d4b565b5b828201905092915050565b6000613af282613c22565b9150613afd83613c22565b925082613b0d57613b0c613d7a565b5b828204905092915050565b6000613b2382613c22565b9150613b2e83613c22565b9250817fffffffffffffffffffffffffffffffffffffffffffffffffffffffffffffffff0483118215151615613b6757613b66613d4b565b5b828202905092915050565b6000613b7d82613c22565b9150613b8883613c22565b925082821015613b9b57613b9a613d4b565b5b828203905092915050565b6000613bb182613c02565b9050919050565b6000613bc382613c02565b9050919050565b60008115159050919050565b60007fffffffff0000000000000000000000000000000000000000000000000000000082169050919050565b600073ffffffffffffffffffffffffffffffffffffffff82169050919050565b6000819050919050565b82818337600083830152505050565b60005b83811015613c59578082015181840152602081019050613c3e565b83811115613c68576000848401525b50505050565b60006002820490506001821680613c8657607f821691505b60208210811415613c9a57613c99613da9565b5b50919050565b613ca982613e07565b810181811067ffffffffffffffff82111715613cc857613cc7613dd8565b5b80604052505050565b6000613cdc82613c22565b91507fffffffffffffffffffffffffffffffffffffffffffffffffffffffffffffffff821415613d0f57613d0e613d4b565b5b600182019050919050565b6000613d2582613c22565b9150613d3083613c22565b925082613d4057613d3f613d7a565b5b828206905092915050565b7f4e487b7100000000000000000000000000000000000000000000000000000000600052601160045260246000fd5b7f4e487b7100000000000000000000000000000000000000000000000000000000600052601260045260246000fd5b7f4e487b7100000000000000000000000000000000000000000000000000000000600052602260045260246000fd5b7f4e487b7100000000000000000000000000000000000000000000000000000000600052604160045260246000fd5b6000601f19601f8301169050919050565b7f4f6e6c792061646d696e2063616e2072756e20746869732066756e6374696f6e600082015250565b7f4552433732313a207472616e7366657220746f206e6f6e20455243373231526560008201527f63656976657220696d706c656d656e7465720000000000000000000000000000602082015250565b7f4552433732313a20746f6b656e20616c7265616479206d696e74656400000000600082015250565b7f4552433732313a207472616e7366657220746f20746865207a65726f2061646460008201527f7265737300000000000000000000000000000000000000000000000000000000602082015250565b7f4552433732313a20617070726f766520746f2063616c6c657200000000000000600082015250565b7f4552433732313a206f70657261746f7220717565727920666f72206e6f6e657860008201527f697374656e7420746f6b656e0000000000000000000000000000000000000000602082015250565b7f4552433732313a20617070726f76652063616c6c6572206973206e6f74206f7760008201527f6e6572206e6f7220617070726f76656420666f7220616c6c0000000000000000602082015250565b7f4552433732313a2062616c616e636520717565727920666f7220746865207a6560008201527f726f206164647265737300000000000000000000000000000000000000000000602082015250565b7f4552433732313a206f776e657220717565727920666f72206e6f6e657869737460008201527f656e7420746f6b656e0000000000000000000000000000000000000000000000602082015250565b7f45524337323155524953746f726167653a2055524920736574206f66206e6f6e60008201527f6578697374656e7420746f6b656e000000000000000000000000000000000000602082015250565b7f796f7520617265206e6f7420746865206f776e65720000000000000000000000600082015250565b7f4552433732313a206d696e7420746f20746865207a65726f2061646472657373600082015250565b7f45524337323155524953746f726167653a2055524920717565727920666f722060008201527f6e6f6e6578697374656e7420746f6b656e000000000000000000000000000000602082015250565b7f4552433732313a20617070726f76656420717565727920666f72206e6f6e657860008201527f697374656e7420746f6b656e0000000000000000000000000000000000000000602082015250565b7f496e76616c696420636f6d697373696f6e2076616c7565000000000000000000600082015250565b7f4552433732313a207472616e73666572206f6620746f6b656e2074686174206960008201527f73206e6f74206f776e0000000000000000000000000000000000000000000000602082015250565b7f4552433732314d657461646174613a2055524920717565727920666f72206e6f60008201527f6e6578697374656e7420746f6b656e0000000000000000000000000000000000602082015250565b7f506c65617365207375626d697420657175616c20746f206f722067726561746560008201527f72207468616e2061736b696e6720707269636520696e206f7264657220746f2060208201527f636f6d706c657465207468652070757263686173650000000000000000000000604082015250565b7f53656c6c69676e207072696365206d757374206265206772656174657220746860008201527f616e203020657468000000000000000000000000000000000000000000000000602082015250565b7f4552433732313a20617070726f76616c20746f2063757272656e74206f776e6560008201527f7200000000000000000000000000000000000000000000000000000000000000602082015250565b7f4552433732313a207472616e736665722063616c6c6572206973206e6f74206f60008201527f776e6572206e6f7220617070726f766564000000000000000000000000000000602082015250565b7f4974656d206e6f7420666f722073616c65000000000000000000000000000000600082015250565b7f5265656e7472616e637947756172643a207265656e7472616e742063616c6c00600082015250565b61443081613ba6565b811461443b57600080fd5b50565b61444781613bca565b811461445257600080fd5b50565b61445e81613bd6565b811461446957600080fd5b50565b61447581613c22565b811461448057600080fd5b5056fea264697066735822122001ee93e98ba22b456e86ebbdf55ab9982beea2ccdc3013d16cb7300b7370f6e064736f6c63430008040033",
  "linkReferences": {},
  "deployedLinkReferences": {}
}