{
  "_format": "hh-sol-artifact-1",
  "contractName": "NFT",
  "sourceName": "contracts/NFT.sol",
  "abi": [
    {
      "inputs": [],
      "stateMutability": "nonpayable",
      "type": "constructor"
    },
    {
      "anonymous": false,
      "inputs": [
        {
          "indexed": true,
          "internalType": "address",
          "name": "owner",
          "type": "address"
        },
        {
          "indexed": true,
          "internalType": "address",
          "name": "approved",
          "type": "address"
        },
        {
          "indexed": true,
          "internalType": "uint256",
          "name": "tokenId",
          "type": "uint256"
        }
      ],
      "name": "Approval",
      "type": "event"
    },
    {
      "anonymous": false,
      "inputs": [
        {
          "indexed": true,
          "internalType": "address",
          "name": "owner",
          "type": "address"
        },
        {
          "indexed": true,
          "internalType": "address",
          "name": "operator",
          "type": "address"
        },
        {
          "indexed": false,
          "internalType": "bool",
          "name": "approved",
          "type": "bool"
        }
      ],
      "name": "ApprovalForAll",
      "type": "event"
    },
    {
      "anonymous": false,
      "inputs": [
        {
          "indexed": true,
          "internalType": "uint256",
          "name": "tokenId",
          "type": "uint256"
        },
        {
          "indexed": false,
          "internalType": "address",
          "name": "owner",
          "type": "address"
        },
        {
          "indexed": false,
          "internalType": "uint256",
          "name": "price",
          "type": "uint256"
        },
        {
          "indexed": false,
          "internalType": "bool",
          "name": "sold",
          "type": "bool"
        },
        {
          "indexed": false,
          "internalType": "address",
          "name": "original_owner",
          "type": "address"
        }
      ],
      "name": "MarketItemCreated",
      "type": "event"
    },
    {
      "anonymous": false,
      "inputs": [
        {
          "indexed": true,
          "internalType": "address",
          "name": "from",
          "type": "address"
        },
        {
          "indexed": true,
          "internalType": "address",
          "name": "to",
          "type": "address"
        },
        {
          "indexed": true,
          "internalType": "uint256",
          "name": "tokenId",
          "type": "uint256"
        }
      ],
      "name": "Transfer",
      "type": "event"
    },
    {
      "inputs": [
        {
          "internalType": "address",
          "name": "to",
          "type": "address"
        },
        {
          "internalType": "uint256",
          "name": "tokenId",
          "type": "uint256"
        }
      ],
      "name": "approve",
      "outputs": [],
      "stateMutability": "nonpayable",
      "type": "function"
    },
    {
      "inputs": [
        {
          "internalType": "address",
          "name": "owner",
          "type": "address"
        }
      ],
      "name": "balanceOf",
      "outputs": [
        {
          "internalType": "uint256",
          "name": "",
          "type": "uint256"
        }
      ],
      "stateMutability": "view",
      "type": "function"
    },
    {
      "inputs": [
        {
          "internalType": "uint256",
          "name": "tokenID",
          "type": "uint256"
        }
      ],
      "name": "burn",
      "outputs": [],
      "stateMutability": "nonpayable",
      "type": "function"
    },
    {
      "inputs": [
        {
          "internalType": "uint256",
          "name": "itemId",
          "type": "uint256"
        }
      ],
      "name": "createMarketSale",
      "outputs": [],
      "stateMutability": "payable",
      "type": "function"
    },
    {
      "inputs": [
        {
          "internalType": "string",
          "name": "_tokenURI",
          "type": "string"
        },
        {
          "internalType": "uint256",
          "name": "price",
          "type": "uint256"
        }
      ],
      "name": "createToken",
      "outputs": [],
      "stateMutability": "payable",
      "type": "function"
    },
    {
      "inputs": [],
      "name": "fetchItemsCreated",
      "outputs": [
        {
          "components": [
            {
              "internalType": "uint256",
              "name": "tokenId",
              "type": "uint256"
            },
            {
              "internalType": "address payable",
              "name": "owner",
              "type": "address"
            },
            {
              "internalType": "uint256",
              "name": "price",
              "type": "uint256"
            },
            {
              "internalType": "bool",
              "name": "sold",
              "type": "bool"
            },
            {
              "internalType": "address payable",
              "name": "original_owner",
              "type": "address"
            }
          ],
          "internalType": "struct NFT.MarketItem[]",
          "name": "",
          "type": "tuple[]"
        }
      ],
      "stateMutability": "view",
      "type": "function"
    },
    {
      "inputs": [],
      "name": "fetchMarketItems",
      "outputs": [
        {
          "components": [
            {
              "internalType": "uint256",
              "name": "tokenId",
              "type": "uint256"
            },
            {
              "internalType": "address payable",
              "name": "owner",
              "type": "address"
            },
            {
              "internalType": "uint256",
              "name": "price",
              "type": "uint256"
            },
            {
              "internalType": "bool",
              "name": "sold",
              "type": "bool"
            },
            {
              "internalType": "address payable",
              "name": "original_owner",
              "type": "address"
            }
          ],
          "internalType": "struct NFT.MarketItem[]",
          "name": "",
          "type": "tuple[]"
        }
      ],
      "stateMutability": "view",
      "type": "function"
    },
    {
      "inputs": [],
      "name": "fetchMyNFTs",
      "outputs": [
        {
          "components": [
            {
              "internalType": "uint256",
              "name": "tokenId",
              "type": "uint256"
            },
            {
              "internalType": "address payable",
              "name": "owner",
              "type": "address"
            },
            {
              "internalType": "uint256",
              "name": "price",
              "type": "uint256"
            },
            {
              "internalType": "bool",
              "name": "sold",
              "type": "bool"
            },
            {
              "internalType": "address payable",
              "name": "original_owner",
              "type": "address"
            }
          ],
          "internalType": "struct NFT.MarketItem[]",
          "name": "",
          "type": "tuple[]"
        }
      ],
      "stateMutability": "view",
      "type": "function"
    },
    {
      "inputs": [
        {
          "internalType": "uint256",
          "name": "tokenId",
          "type": "uint256"
        }
      ],
      "name": "getApproved",
      "outputs": [
        {
          "internalType": "address",
          "name": "",
          "type": "address"
        }
      ],
      "stateMutability": "view",
      "type": "function"
    },
    {
      "inputs": [
        {
          "internalType": "address",
          "name": "owner",
          "type": "address"
        },
        {
          "internalType": "address",
          "name": "operator",
          "type": "address"
        }
      ],
      "name": "isApprovedForAll",
      "outputs": [
        {
          "internalType": "bool",
          "name": "",
          "type": "bool"
        }
      ],
      "stateMutability": "view",
      "type": "function"
    },
    {
      "inputs": [],
      "name": "name",
      "outputs": [
        {
          "internalType": "string",
          "name": "",
          "type": "string"
        }
      ],
      "stateMutability": "view",
      "type": "function"
    },
    {
      "inputs": [
        {
          "internalType": "uint256",
          "name": "tokenId",
          "type": "uint256"
        }
      ],
      "name": "ownerOf",
      "outputs": [
        {
          "internalType": "address",
          "name": "",
          "type": "address"
        }
      ],
      "stateMutability": "view",
      "type": "function"
    },
    {
      "inputs": [
        {
          "internalType": "address",
          "name": "from",
          "type": "address"
        },
        {
          "internalType": "address",
          "name": "to",
          "type": "address"
        },
        {
          "internalType": "uint256",
          "name": "tokenId",
          "type": "uint256"
        }
      ],
      "name": "safeTransferFrom",
      "outputs": [],
      "stateMutability": "nonpayable",
      "type": "function"
    },
    {
      "inputs": [
        {
          "internalType": "address",
          "name": "from",
          "type": "address"
        },
        {
          "internalType": "address",
          "name": "to",
          "type": "address"
        },
        {
          "internalType": "uint256",
          "name": "tokenId",
          "type": "uint256"
        },
        {
          "internalType": "bytes",
          "name": "_data",
          "type": "bytes"
        }
      ],
      "name": "safeTransferFrom",
      "outputs": [],
      "stateMutability": "nonpayable",
      "type": "function"
    },
    {
      "inputs": [
        {
          "internalType": "address",
          "name": "operator",
          "type": "address"
        },
        {
          "internalType": "bool",
          "name": "approved",
          "type": "bool"
        }
      ],
      "name": "setApprovalForAll",
      "outputs": [],
      "stateMutability": "nonpayable",
      "type": "function"
    },
    {
      "inputs": [
        {
          "internalType": "bytes4",
          "name": "interfaceId",
          "type": "bytes4"
        }
      ],
      "name": "supportsInterface",
      "outputs": [
        {
          "internalType": "bool",
          "name": "",
          "type": "bool"
        }
      ],
      "stateMutability": "view",
      "type": "function"
    },
    {
      "inputs": [],
      "name": "symbol",
      "outputs": [
        {
          "internalType": "string",
          "name": "",
          "type": "string"
        }
      ],
      "stateMutability": "view",
      "type": "function"
    },
    {
      "inputs": [
        {
          "internalType": "uint256",
          "name": "tokenId",
          "type": "uint256"
        }
      ],
      "name": "tokenURI",
      "outputs": [
        {
          "internalType": "string",
          "name": "",
          "type": "string"
        }
      ],
      "stateMutability": "view",
      "type": "function"
    },
    {
      "inputs": [
        {
          "internalType": "address",
          "name": "from",
          "type": "address"
        },
        {
          "internalType": "address",
          "name": "to",
          "type": "address"
        },
        {
          "internalType": "uint256",
          "name": "tokenId",
          "type": "uint256"
        }
      ],
      "name": "transferFrom",
      "outputs": [],
      "stateMutability": "nonpayable",
      "type": "function"
    }
  ],
  "bytecode": "0x60806040526001600b556002600c553480156200001b57600080fd5b506040518060400160405280600d81526020017f556e6e616d656420546f6b656e000000000000000000000000000000000000008152506040518060400160405280600481526020017f554e544b000000000000000000000000000000000000000000000000000000008152508160009080519060200190620000a09291906200010b565b508060019080519060200190620000b99291906200010b565b505050600160078190555033600a60006101000a81548173ffffffffffffffffffffffffffffffffffffffff021916908373ffffffffffffffffffffffffffffffffffffffff16021790555062000220565b8280546200011990620001bb565b90600052602060002090601f0160209004810192826200013d576000855562000189565b82601f106200015857805160ff191683800117855562000189565b8280016001018555821562000189579182015b82811115620001885782518255916020019190600101906200016b565b5b5090506200019891906200019c565b5090565b5b80821115620001b75760008160009055506001016200019d565b5090565b60006002820490506001821680620001d457607f821691505b60208210811415620001eb57620001ea620001f1565b5b50919050565b7f4e487b7100000000000000000000000000000000000000000000000000000000600052602260045260246000fd5b61429d80620002306000396000f3fe6080604052600436106101145760003560e01c80636352211e116100a0578063b88d4fde11610064578063b88d4fde146103a2578063be9af536146103cb578063c87b56dd146103e7578063e985e9c514610424578063f064c32e1461046157610114565b80636352211e146102b857806370a08231146102f557806372b3b6201461033257806395d89b411461034e578063a22cb4651461037957610114565b80630f08efe0116100e75780630f08efe0146101e7578063202e37401461021257806323b872dd1461023d57806342842e0e1461026657806342966c681461028f57610114565b806301ffc9a71461011957806306fdde0314610156578063081812fc14610181578063095ea7b3146101be575b600080fd5b34801561012557600080fd5b50610140600480360381019061013b9190612e51565b61048c565b60405161014d91906134cc565b60405180910390f35b34801561016257600080fd5b5061016b61056e565b60405161017891906134e7565b60405180910390f35b34801561018d57600080fd5b506101a860048036038101906101a39190612ef7565b610600565b6040516101b591906133fe565b60405180910390f35b3480156101ca57600080fd5b506101e560048036038101906101e09190612e15565b610685565b005b3480156101f357600080fd5b506101fc61079d565b60405161020991906134aa565b60405180910390f35b34801561021e57600080fd5b50610227610a18565b60405161023491906134aa565b60405180910390f35b34801561024957600080fd5b50610264600480360381019061025f9190612d0f565b610d52565b005b34801561027257600080fd5b5061028d60048036038101906102889190612d0f565b610db2565b005b34801561029b57600080fd5b506102b660048036038101906102b19190612ef7565b610dd2565b005b3480156102c457600080fd5b506102df60048036038101906102da9190612ef7565b610e82565b6040516102ec91906133fe565b60405180910390f35b34801561030157600080fd5b5061031c60048036038101906103179190612caa565b610f34565b60405161032991906137a9565b60405180910390f35b61034c60048036038101906103479190612ea3565b610fec565b005b34801561035a57600080fd5b50610363611224565b60405161037091906134e7565b60405180910390f35b34801561038557600080fd5b506103a0600480360381019061039b9190612dd9565b6112b6565b005b3480156103ae57600080fd5b506103c960048036038101906103c49190612d5e565b6112cc565b005b6103e560048036038101906103e09190612ef7565b61132e565b005b3480156103f357600080fd5b5061040e60048036038101906104099190612ef7565b611693565b60405161041b91906134e7565b60405180910390f35b34801561043057600080fd5b5061044b60048036038101906104469190612cd3565b6117e5565b60405161045891906134cc565b60405180910390f35b34801561046d57600080fd5b50610476611879565b60405161048391906134aa565b60405180910390f35b60007f80ac58cd000000000000000000000000000000000000000000000000000000007bffffffffffffffffffffffffffffffffffffffffffffffffffffffff1916827bffffffffffffffffffffffffffffffffffffffffffffffffffffffff1916148061055757507f5b5e139f000000000000000000000000000000000000000000000000000000007bffffffffffffffffffffffffffffffffffffffffffffffffffffffff1916827bffffffffffffffffffffffffffffffffffffffffffffffffffffffff1916145b80610567575061056682611bb3565b5b9050919050565b60606000805461057d90613aa4565b80601f01602080910402602001604051908101604052809291908181526020018280546105a990613aa4565b80156105f65780601f106105cb576101008083540402835291602001916105f6565b820191906000526020600020905b8154815290600101906020018083116105d957829003601f168201915b5050505050905090565b600061060b82611c1d565b61064a576040517f08c379a000000000000000000000000000000000000000000000000000000000815260040161064190613689565b60405180910390fd5b6004600083815260200190815260200160002060009054906101000a900473ffffffffffffffffffffffffffffffffffffffff169050919050565b600061069082610e82565b90508073ffffffffffffffffffffffffffffffffffffffff168373ffffffffffffffffffffffffffffffffffffffff161415610701576040517f08c379a00000000000000000000000000000000000000000000000000000000081526004016106f890613729565b60405180910390fd5b8073ffffffffffffffffffffffffffffffffffffffff16610720611c89565b73ffffffffffffffffffffffffffffffffffffffff16148061074f575061074e81610749611c89565b6117e5565b5b61078e576040517f08c379a0000000000000000000000000000000000000000000000000000000008152600401610785906135a9565b60405180910390fd5b6107988383611c91565b505050565b606060006107ab6008611d4a565b905060006107b96009611d4a565b6107c36008611d4a565b6107cd91906139a8565b90506000808267ffffffffffffffff811115610812577f4e487b7100000000000000000000000000000000000000000000000000000000600052604160045260246000fd5b60405190808252806020026020018201604052801561084b57816020015b610838612a31565b8152602001906001900390816108305790505b50905060005b84811015610a0d5760001515600d600060018461086e91906138c7565b815260200190815260200160002060030160009054906101000a900460ff16151514156109fa5760006001826108a491906138c7565b90506000600d60008381526020019081526020016000209050806040518060a0016040529081600082015481526020016001820160009054906101000a900473ffffffffffffffffffffffffffffffffffffffff1673ffffffffffffffffffffffffffffffffffffffff1673ffffffffffffffffffffffffffffffffffffffff168152602001600282015481526020016003820160009054906101000a900460ff161515151581526020016003820160019054906101000a900473ffffffffffffffffffffffffffffffffffffffff1673ffffffffffffffffffffffffffffffffffffffff1673ffffffffffffffffffffffffffffffffffffffff16815250508486815181106109dd577f4e487b7100000000000000000000000000000000000000000000000000000000600052603260045260246000fd5b60200260200101819052506001856109f591906138c7565b945050505b8080610a0590613b07565b915050610851565b508094505050505090565b60606000610a266008611d4a565b905060008060005b83811015610acf573373ffffffffffffffffffffffffffffffffffffffff16600d6000600184610a5e91906138c7565b815260200190815260200160002060010160009054906101000a900473ffffffffffffffffffffffffffffffffffffffff1673ffffffffffffffffffffffffffffffffffffffff161415610abc57600183610ab991906138c7565b92505b8080610ac790613b07565b915050610a2e565b5060008267ffffffffffffffff811115610b12577f4e487b7100000000000000000000000000000000000000000000000000000000600052604160045260246000fd5b604051908082528060200260200182016040528015610b4b57816020015b610b38612a31565b815260200190600190039081610b305790505b50905060005b84811015610d47573373ffffffffffffffffffffffffffffffffffffffff16600d6000600184610b8191906138c7565b815260200190815260200160002060010160009054906101000a900473ffffffffffffffffffffffffffffffffffffffff1673ffffffffffffffffffffffffffffffffffffffff161415610d34576000600182610bde91906138c7565b90506000600d60008381526020019081526020016000209050806040518060a0016040529081600082015481526020016001820160009054906101000a900473ffffffffffffffffffffffffffffffffffffffff1673ffffffffffffffffffffffffffffffffffffffff1673ffffffffffffffffffffffffffffffffffffffff168152602001600282015481526020016003820160009054906101000a900460ff161515151581526020016003820160019054906101000a900473ffffffffffffffffffffffffffffffffffffffff1673ffffffffffffffffffffffffffffffffffffffff1673ffffffffffffffffffffffffffffffffffffffff1681525050848681518110610d17577f4e487b7100000000000000000000000000000000000000000000000000000000600052603260045260246000fd5b6020026020010181905250600185610d2f91906138c7565b945050505b8080610d3f90613b07565b915050610b51565b508094505050505090565b610d63610d5d611c89565b82611d58565b610da2576040517f08c379a0000000000000000000000000000000000000000000000000000000008152600401610d9990613749565b60405180910390fd5b610dad838383611e36565b505050565b610dcd838383604051806020016040528060008152506112cc565b505050565b600d600082815260200190815260200160002060010160009054906101000a900473ffffffffffffffffffffffffffffffffffffffff1673ffffffffffffffffffffffffffffffffffffffff163373ffffffffffffffffffffffffffffffffffffffff1614610e76576040517f08c379a0000000000000000000000000000000000000000000000000000000008152600401610e6d90613629565b60405180910390fd5b610e7f81612092565b50565b6000806002600084815260200190815260200160002060009054906101000a900473ffffffffffffffffffffffffffffffffffffffff169050600073ffffffffffffffffffffffffffffffffffffffff168173ffffffffffffffffffffffffffffffffffffffff161415610f2b576040517f08c379a0000000000000000000000000000000000000000000000000000000008152600401610f22906135e9565b60405180910390fd5b80915050919050565b60008073ffffffffffffffffffffffffffffffffffffffff168273ffffffffffffffffffffffffffffffffffffffff161415610fa5576040517f08c379a0000000000000000000000000000000000000000000000000000000008152600401610f9c906135c9565b60405180910390fd5b600360008373ffffffffffffffffffffffffffffffffffffffff1673ffffffffffffffffffffffffffffffffffffffff168152602001908152602001600020549050919050565b60026007541415611032576040517f08c379a000000000000000000000000000000000000000000000000000000000815260040161102990613789565b60405180910390fd5b600260078190555061104460086120e5565b60006110506008611d4a565b905061105c30826120fb565b61106681846122c9565b60008210156110aa576040517f08c379a00000000000000000000000000000000000000000000000000000000081526004016110a190613709565b60405180910390fd5b6040518060a001604052808281526020013373ffffffffffffffffffffffffffffffffffffffff1681526020018381526020016000151581526020013373ffffffffffffffffffffffffffffffffffffffff16815250600d60008381526020019081526020016000206000820151816000015560208201518160010160006101000a81548173ffffffffffffffffffffffffffffffffffffffff021916908373ffffffffffffffffffffffffffffffffffffffff1602179055506040820151816002015560608201518160030160006101000a81548160ff02191690831515021790555060808201518160030160016101000a81548173ffffffffffffffffffffffffffffffffffffffff021916908373ffffffffffffffffffffffffffffffffffffffff160217905550905050807f30c45af8916d26c5896594b78343d58a9eebfd88f75b4cee41314e24a268fc6e338460003360405161120f9493929190613465565b60405180910390a25060016007819055505050565b60606001805461123390613aa4565b80601f016020809104026020016040519081016040528092919081815260200182805461125f90613aa4565b80156112ac5780601f10611281576101008083540402835291602001916112ac565b820191906000526020600020905b81548152906001019060200180831161128f57829003601f168201915b5050505050905090565b6112c86112c1611c89565b838361233d565b5050565b6112dd6112d7611c89565b83611d58565b61131c576040517f08c379a000000000000000000000000000000000000000000000000000000000815260040161131390613749565b60405180910390fd5b611328848484846124aa565b50505050565b60026007541415611374576040517f08c379a000000000000000000000000000000000000000000000000000000000815260040161136b90613789565b60405180910390fd5b60026007819055506000600d60008381526020019081526020016000206002015490506000600d600084815260200190815260200160002060030160019054906101000a900473ffffffffffffffffffffffffffffffffffffffff16905060001515600d600085815260200190815260200160002060030160009054906101000a900460ff1615151461143c576040517f08c379a000000000000000000000000000000000000000000000000000000000815260040161143390613769565b60405180910390fd5b8134101561147f576040517f08c379a0000000000000000000000000000000000000000000000000000000008152600401611476906136e9565b60405180910390fd5b60003490506000606434611493919061391d565b90506000600b54826114a5919061394e565b90506000600c54836114b7919061394e565b905081846114c591906139a8565b935080846114d391906139a8565b9350600d600088815260200190815260200160002060010160009054906101000a900473ffffffffffffffffffffffffffffffffffffffff1673ffffffffffffffffffffffffffffffffffffffff166108fc859081150290604051600060405180830381858888f19350505050158015611551573d6000803e3d6000fd5b5033600d600089815260200190815260200160002060010160006101000a81548173ffffffffffffffffffffffffffffffffffffffff021916908373ffffffffffffffffffffffffffffffffffffffff1602179055506001600d600089815260200190815260200160002060030160006101000a81548160ff0219169083151502179055506115e060096120e5565b732e6102ca1e020bfd044a3cb54540f84dcb4eaf0273ffffffffffffffffffffffffffffffffffffffff166108fc839081150290604051600060405180830381858888f1935050505015801561163a573d6000803e3d6000fd5b508473ffffffffffffffffffffffffffffffffffffffff166108fc829081150290604051600060405180830381858888f19350505050158015611681573d6000803e3d6000fd5b50505050505050600160078190555050565b606061169e82611c1d565b6116dd576040517f08c379a00000000000000000000000000000000000000000000000000000000081526004016116d490613669565b60405180910390fd5b60006006600084815260200190815260200160002080546116fd90613aa4565b80601f016020809104026020016040519081016040528092919081815260200182805461172990613aa4565b80156117765780601f1061174b57610100808354040283529160200191611776565b820191906000526020600020905b81548152906001019060200180831161175957829003601f168201915b505050505090506000611787612506565b905060008151141561179d5781925050506117e0565b6000825111156117d25780826040516020016117ba9291906133da565b604051602081830303815290604052925050506117e0565b6117db8461251d565b925050505b919050565b6000600560008473ffffffffffffffffffffffffffffffffffffffff1673ffffffffffffffffffffffffffffffffffffffff16815260200190815260200160002060008373ffffffffffffffffffffffffffffffffffffffff1673ffffffffffffffffffffffffffffffffffffffff16815260200190815260200160002060009054906101000a900460ff16905092915050565b606060006118876008611d4a565b905060008060005b83811015611930573373ffffffffffffffffffffffffffffffffffffffff16600d60006001846118bf91906138c7565b815260200190815260200160002060010160009054906101000a900473ffffffffffffffffffffffffffffffffffffffff1673ffffffffffffffffffffffffffffffffffffffff16141561191d5760018361191a91906138c7565b92505b808061192890613b07565b91505061188f565b5060008267ffffffffffffffff811115611973577f4e487b7100000000000000000000000000000000000000000000000000000000600052604160045260246000fd5b6040519080825280602002602001820160405280156119ac57816020015b611999612a31565b8152602001906001900390816119915790505b50905060005b84811015611ba8573373ffffffffffffffffffffffffffffffffffffffff16600d60006001846119e291906138c7565b815260200190815260200160002060010160009054906101000a900473ffffffffffffffffffffffffffffffffffffffff1673ffffffffffffffffffffffffffffffffffffffff161415611b95576000600182611a3f91906138c7565b90506000600d60008381526020019081526020016000209050806040518060a0016040529081600082015481526020016001820160009054906101000a900473ffffffffffffffffffffffffffffffffffffffff1673ffffffffffffffffffffffffffffffffffffffff1673ffffffffffffffffffffffffffffffffffffffff168152602001600282015481526020016003820160009054906101000a900460ff161515151581526020016003820160019054906101000a900473ffffffffffffffffffffffffffffffffffffffff1673ffffffffffffffffffffffffffffffffffffffff1673ffffffffffffffffffffffffffffffffffffffff1681525050848681518110611b78577f4e487b7100000000000000000000000000000000000000000000000000000000600052603260045260246000fd5b6020026020010181905250600185611b9091906138c7565b945050505b8080611ba090613b07565b9150506119b2565b508094505050505090565b60007f01ffc9a7000000000000000000000000000000000000000000000000000000007bffffffffffffffffffffffffffffffffffffffffffffffffffffffff1916827bffffffffffffffffffffffffffffffffffffffffffffffffffffffff1916149050919050565b60008073ffffffffffffffffffffffffffffffffffffffff166002600084815260200190815260200160002060009054906101000a900473ffffffffffffffffffffffffffffffffffffffff1673ffffffffffffffffffffffffffffffffffffffff1614159050919050565b600033905090565b816004600083815260200190815260200160002060006101000a81548173ffffffffffffffffffffffffffffffffffffffff021916908373ffffffffffffffffffffffffffffffffffffffff160217905550808273ffffffffffffffffffffffffffffffffffffffff16611d0483610e82565b73ffffffffffffffffffffffffffffffffffffffff167f8c5be1e5ebec7d5bd14f71427d1e84f3dd0314c0f7b2291e5b200ac8c7c3b92560405160405180910390a45050565b600081600001549050919050565b6000611d6382611c1d565b611da2576040517f08c379a0000000000000000000000000000000000000000000000000000000008152600401611d9990613589565b60405180910390fd5b6000611dad83610e82565b90508073ffffffffffffffffffffffffffffffffffffffff168473ffffffffffffffffffffffffffffffffffffffff161480611e1c57508373ffffffffffffffffffffffffffffffffffffffff16611e0484610600565b73ffffffffffffffffffffffffffffffffffffffff16145b80611e2d5750611e2c81856117e5565b5b91505092915050565b8273ffffffffffffffffffffffffffffffffffffffff16611e5682610e82565b73ffffffffffffffffffffffffffffffffffffffff1614611eac576040517f08c379a0000000000000000000000000000000000000000000000000000000008152600401611ea3906136a9565b60405180910390fd5b600073ffffffffffffffffffffffffffffffffffffffff168273ffffffffffffffffffffffffffffffffffffffff161415611f1c576040517f08c379a0000000000000000000000000000000000000000000000000000000008152600401611f1390613549565b60405180910390fd5b611f278383836125c4565b611f32600082611c91565b6001600360008573ffffffffffffffffffffffffffffffffffffffff1673ffffffffffffffffffffffffffffffffffffffff1681526020019081526020016000206000828254611f8291906139a8565b925050819055506001600360008473ffffffffffffffffffffffffffffffffffffffff1673ffffffffffffffffffffffffffffffffffffffff1681526020019081526020016000206000828254611fd991906138c7565b92505081905550816002600083815260200190815260200160002060006101000a81548173ffffffffffffffffffffffffffffffffffffffff021916908373ffffffffffffffffffffffffffffffffffffffff160217905550808273ffffffffffffffffffffffffffffffffffffffff168473ffffffffffffffffffffffffffffffffffffffff167fddf252ad1be2c89b69c2b068fc378daa952ba7f163c4a11628f55a4df523b3ef60405160405180910390a4505050565b61209b816125c9565b60006006600083815260200190815260200160002080546120bb90613aa4565b9050146120e2576006600082815260200190815260200160002060006120e19190612a8e565b5b50565b6001816000016000828254019250508190555050565b600073ffffffffffffffffffffffffffffffffffffffff168273ffffffffffffffffffffffffffffffffffffffff16141561216b576040517f08c379a000000000000000000000000000000000000000000000000000000000815260040161216290613649565b60405180910390fd5b61217481611c1d565b156121b4576040517f08c379a00000000000000000000000000000000000000000000000000000000081526004016121ab90613529565b60405180910390fd5b6121c0600083836125c4565b6001600360008473ffffffffffffffffffffffffffffffffffffffff1673ffffffffffffffffffffffffffffffffffffffff168152602001908152602001600020600082825461221091906138c7565b92505081905550816002600083815260200190815260200160002060006101000a81548173ffffffffffffffffffffffffffffffffffffffff021916908373ffffffffffffffffffffffffffffffffffffffff160217905550808273ffffffffffffffffffffffffffffffffffffffff16600073ffffffffffffffffffffffffffffffffffffffff167fddf252ad1be2c89b69c2b068fc378daa952ba7f163c4a11628f55a4df523b3ef60405160405180910390a45050565b6122d282611c1d565b612311576040517f08c379a000000000000000000000000000000000000000000000000000000000815260040161230890613609565b60405180910390fd5b80600660008481526020019081526020016000209080519060200190612338929190612ace565b505050565b8173ffffffffffffffffffffffffffffffffffffffff168373ffffffffffffffffffffffffffffffffffffffff1614156123ac576040517f08c379a00000000000000000000000000000000000000000000000000000000081526004016123a390613569565b60405180910390fd5b80600560008573ffffffffffffffffffffffffffffffffffffffff1673ffffffffffffffffffffffffffffffffffffffff16815260200190815260200160002060008473ffffffffffffffffffffffffffffffffffffffff1673ffffffffffffffffffffffffffffffffffffffff16815260200190815260200160002060006101000a81548160ff0219169083151502179055508173ffffffffffffffffffffffffffffffffffffffff168373ffffffffffffffffffffffffffffffffffffffff167f17307eab39ab6107e8899845ad3d59bd9653f200f220920489ca2b5937696c318360405161249d91906134cc565b60405180910390a3505050565b6124b5848484611e36565b6124c1848484846126da565b612500576040517f08c379a00000000000000000000000000000000000000000000000000000000081526004016124f790613509565b60405180910390fd5b50505050565b606060405180602001604052806000815250905090565b606061252882611c1d565b612567576040517f08c379a000000000000000000000000000000000000000000000000000000000815260040161255e906136c9565b60405180910390fd5b6000612571612506565b9050600081511161259157604051806020016040528060008152506125bc565b8061259b84612871565b6040516020016125ac9291906133da565b6040516020818303038152906040525b915050919050565b505050565b60006125d482610e82565b90506125e2816000846125c4565b6125ed600083611c91565b6001600360008373ffffffffffffffffffffffffffffffffffffffff1673ffffffffffffffffffffffffffffffffffffffff168152602001908152602001600020600082825461263d91906139a8565b925050819055506002600083815260200190815260200160002060006101000a81549073ffffffffffffffffffffffffffffffffffffffff021916905581600073ffffffffffffffffffffffffffffffffffffffff168273ffffffffffffffffffffffffffffffffffffffff167fddf252ad1be2c89b69c2b068fc378daa952ba7f163c4a11628f55a4df523b3ef60405160405180910390a45050565b60006126fb8473ffffffffffffffffffffffffffffffffffffffff16612a1e565b15612864578373ffffffffffffffffffffffffffffffffffffffff1663150b7a02612724611c89565b8786866040518563ffffffff1660e01b81526004016127469493929190613419565b602060405180830381600087803b15801561276057600080fd5b505af192505050801561279157506040513d601f19601f8201168201806040525081019061278e9190612e7a565b60015b612814573d80600081146127c1576040519150601f19603f3d011682016040523d82523d6000602084013e6127c6565b606091505b5060008151141561280c576040517f08c379a000000000000000000000000000000000000000000000000000000000815260040161280390613509565b60405180910390fd5b805181602001fd5b63150b7a0260e01b7bffffffffffffffffffffffffffffffffffffffffffffffffffffffff1916817bffffffffffffffffffffffffffffffffffffffffffffffffffffffff191614915050612869565b600190505b949350505050565b606060008214156128b9576040518060400160405280600181526020017f30000000000000000000000000000000000000000000000000000000000000008152509050612a19565b600082905060005b600082146128eb5780806128d490613b07565b915050600a826128e4919061391d565b91506128c1565b60008167ffffffffffffffff81111561292d577f4e487b7100000000000000000000000000000000000000000000000000000000600052604160045260246000fd5b6040519080825280601f01601f19166020018201604052801561295f5781602001600182028036833780820191505090505b5090505b60008514612a125760018261297891906139a8565b9150600a856129879190613b50565b603061299391906138c7565b60f81b8183815181106129cf577f4e487b7100000000000000000000000000000000000000000000000000000000600052603260045260246000fd5b60200101907effffffffffffffffffffffffffffffffffffffffffffffffffffffffffffff1916908160001a905350600a85612a0b919061391d565b9450612963565b8093505050505b919050565b600080823b905060008111915050919050565b6040518060a0016040528060008152602001600073ffffffffffffffffffffffffffffffffffffffff16815260200160008152602001600015158152602001600073ffffffffffffffffffffffffffffffffffffffff1681525090565b508054612a9a90613aa4565b6000825580601f10612aac5750612acb565b601f016020900490600052602060002090810190612aca9190612b54565b5b50565b828054612ada90613aa4565b90600052602060002090601f016020900481019282612afc5760008555612b43565b82601f10612b1557805160ff1916838001178555612b43565b82800160010185558215612b43579182015b82811115612b42578251825591602001919060010190612b27565b5b509050612b509190612b54565b5090565b5b80821115612b6d576000816000905550600101612b55565b5090565b6000612b84612b7f846137e9565b6137c4565b905082815260208101848484011115612b9c57600080fd5b612ba7848285613a62565b509392505050565b6000612bc2612bbd8461381a565b6137c4565b905082815260208101848484011115612bda57600080fd5b612be5848285613a62565b509392505050565b600081359050612bfc8161420b565b92915050565b600081359050612c1181614222565b92915050565b600081359050612c2681614239565b92915050565b600081519050612c3b81614239565b92915050565b600082601f830112612c5257600080fd5b8135612c62848260208601612b71565b91505092915050565b600082601f830112612c7c57600080fd5b8135612c8c848260208601612baf565b91505092915050565b600081359050612ca481614250565b92915050565b600060208284031215612cbc57600080fd5b6000612cca84828501612bed565b91505092915050565b60008060408385031215612ce657600080fd5b6000612cf485828601612bed565b9250506020612d0585828601612bed565b9150509250929050565b600080600060608486031215612d2457600080fd5b6000612d3286828701612bed565b9350506020612d4386828701612bed565b9250506040612d5486828701612c95565b9150509250925092565b60008060008060808587031215612d7457600080fd5b6000612d8287828801612bed565b9450506020612d9387828801612bed565b9350506040612da487828801612c95565b925050606085013567ffffffffffffffff811115612dc157600080fd5b612dcd87828801612c41565b91505092959194509250565b60008060408385031215612dec57600080fd5b6000612dfa85828601612bed565b9250506020612e0b85828601612c02565b9150509250929050565b60008060408385031215612e2857600080fd5b6000612e3685828601612bed565b9250506020612e4785828601612c95565b9150509250929050565b600060208284031215612e6357600080fd5b6000612e7184828501612c17565b91505092915050565b600060208284031215612e8c57600080fd5b6000612e9a84828501612c2c565b91505092915050565b60008060408385031215612eb657600080fd5b600083013567ffffffffffffffff811115612ed057600080fd5b612edc85828601612c6b565b9250506020612eed85828601612c95565b9150509250929050565b600060208284031215612f0957600080fd5b6000612f1784828501612c95565b91505092915050565b6000612f2c8383613354565b60a08301905092915050565b612f41816139ee565b82525050565b612f50816139dc565b82525050565b6000612f618261385b565b612f6b8185613889565b9350612f768361384b565b8060005b83811015612fa7578151612f8e8882612f20565b9750612f998361387c565b925050600181019050612f7a565b5085935050505092915050565b612fbd81613a00565b82525050565b612fcc81613a00565b82525050565b6000612fdd82613866565b612fe7818561389a565b9350612ff7818560208601613a71565b61300081613c3d565b840191505092915050565b600061301682613871565b61302081856138ab565b9350613030818560208601613a71565b61303981613c3d565b840191505092915050565b600061304f82613871565b61305981856138bc565b9350613069818560208601613a71565b80840191505092915050565b60006130826032836138ab565b915061308d82613c4e565b604082019050919050565b60006130a5601c836138ab565b91506130b082613c9d565b602082019050919050565b60006130c86024836138ab565b91506130d382613cc6565b604082019050919050565b60006130eb6019836138ab565b91506130f682613d15565b602082019050919050565b600061310e602c836138ab565b915061311982613d3e565b604082019050919050565b60006131316038836138ab565b915061313c82613d8d565b604082019050919050565b6000613154602a836138ab565b915061315f82613ddc565b604082019050919050565b60006131776029836138ab565b915061318282613e2b565b604082019050919050565b600061319a602e836138ab565b91506131a582613e7a565b604082019050919050565b60006131bd6015836138ab565b91506131c882613ec9565b602082019050919050565b60006131e06020836138ab565b91506131eb82613ef2565b602082019050919050565b60006132036031836138ab565b915061320e82613f1b565b604082019050919050565b6000613226602c836138ab565b915061323182613f6a565b604082019050919050565b60006132496029836138ab565b915061325482613fb9565b604082019050919050565b600061326c602f836138ab565b915061327782614008565b604082019050919050565b600061328f6055836138ab565b915061329a82614057565b606082019050919050565b60006132b26028836138ab565b91506132bd826140cc565b604082019050919050565b60006132d56021836138ab565b91506132e08261411b565b604082019050919050565b60006132f86031836138ab565b91506133038261416a565b604082019050919050565b600061331b6011836138ab565b9150613326826141b9565b602082019050919050565b600061333e601f836138ab565b9150613349826141e2565b602082019050919050565b60a08201600082015161336a60008501826133bc565b50602082015161337d6020850182612f38565b50604082015161339060408501826133bc565b5060608201516133a36060850182612fb4565b5060808201516133b66080850182612f38565b50505050565b6133c581613a58565b82525050565b6133d481613a58565b82525050565b60006133e68285613044565b91506133f28284613044565b91508190509392505050565b60006020820190506134136000830184612f47565b92915050565b600060808201905061342e6000830187612f47565b61343b6020830186612f47565b61344860408301856133cb565b818103606083015261345a8184612fd2565b905095945050505050565b600060808201905061347a6000830187612f47565b61348760208301866133cb565b6134946040830185612fc3565b6134a16060830184612f47565b95945050505050565b600060208201905081810360008301526134c48184612f56565b905092915050565b60006020820190506134e16000830184612fc3565b92915050565b60006020820190508181036000830152613501818461300b565b905092915050565b6000602082019050818103600083015261352281613075565b9050919050565b6000602082019050818103600083015261354281613098565b9050919050565b60006020820190508181036000830152613562816130bb565b9050919050565b60006020820190508181036000830152613582816130de565b9050919050565b600060208201905081810360008301526135a281613101565b9050919050565b600060208201905081810360008301526135c281613124565b9050919050565b600060208201905081810360008301526135e281613147565b9050919050565b600060208201905081810360008301526136028161316a565b9050919050565b600060208201905081810360008301526136228161318d565b9050919050565b60006020820190508181036000830152613642816131b0565b9050919050565b60006020820190508181036000830152613662816131d3565b9050919050565b60006020820190508181036000830152613682816131f6565b9050919050565b600060208201905081810360008301526136a281613219565b9050919050565b600060208201905081810360008301526136c28161323c565b9050919050565b600060208201905081810360008301526136e28161325f565b9050919050565b6000602082019050818103600083015261370281613282565b9050919050565b60006020820190508181036000830152613722816132a5565b9050919050565b60006020820190508181036000830152613742816132c8565b9050919050565b60006020820190508181036000830152613762816132eb565b9050919050565b600060208201905081810360008301526137828161330e565b9050919050565b600060208201905081810360008301526137a281613331565b9050919050565b60006020820190506137be60008301846133cb565b92915050565b60006137ce6137df565b90506137da8282613ad6565b919050565b6000604051905090565b600067ffffffffffffffff82111561380457613803613c0e565b5b61380d82613c3d565b9050602081019050919050565b600067ffffffffffffffff82111561383557613834613c0e565b5b61383e82613c3d565b9050602081019050919050565b6000819050602082019050919050565b600081519050919050565b600081519050919050565b600081519050919050565b6000602082019050919050565b600082825260208201905092915050565b600082825260208201905092915050565b600082825260208201905092915050565b600081905092915050565b60006138d282613a58565b91506138dd83613a58565b9250827fffffffffffffffffffffffffffffffffffffffffffffffffffffffffffffffff0382111561391257613911613b81565b5b828201905092915050565b600061392882613a58565b915061393383613a58565b92508261394357613942613bb0565b5b828204905092915050565b600061395982613a58565b915061396483613a58565b9250817fffffffffffffffffffffffffffffffffffffffffffffffffffffffffffffffff048311821515161561399d5761399c613b81565b5b828202905092915050565b60006139b382613a58565b91506139be83613a58565b9250828210156139d1576139d0613b81565b5b828203905092915050565b60006139e782613a38565b9050919050565b60006139f982613a38565b9050919050565b60008115159050919050565b60007fffffffff0000000000000000000000000000000000000000000000000000000082169050919050565b600073ffffffffffffffffffffffffffffffffffffffff82169050919050565b6000819050919050565b82818337600083830152505050565b60005b83811015613a8f578082015181840152602081019050613a74565b83811115613a9e576000848401525b50505050565b60006002820490506001821680613abc57607f821691505b60208210811415613ad057613acf613bdf565b5b50919050565b613adf82613c3d565b810181811067ffffffffffffffff82111715613afe57613afd613c0e565b5b80604052505050565b6000613b1282613a58565b91507fffffffffffffffffffffffffffffffffffffffffffffffffffffffffffffffff821415613b4557613b44613b81565b5b600182019050919050565b6000613b5b82613a58565b9150613b6683613a58565b925082613b7657613b75613bb0565b5b828206905092915050565b7f4e487b7100000000000000000000000000000000000000000000000000000000600052601160045260246000fd5b7f4e487b7100000000000000000000000000000000000000000000000000000000600052601260045260246000fd5b7f4e487b7100000000000000000000000000000000000000000000000000000000600052602260045260246000fd5b7f4e487b7100000000000000000000000000000000000000000000000000000000600052604160045260246000fd5b6000601f19601f8301169050919050565b7f4552433732313a207472616e7366657220746f206e6f6e20455243373231526560008201527f63656976657220696d706c656d656e7465720000000000000000000000000000602082015250565b7f4552433732313a20746f6b656e20616c7265616479206d696e74656400000000600082015250565b7f4552433732313a207472616e7366657220746f20746865207a65726f2061646460008201527f7265737300000000000000000000000000000000000000000000000000000000602082015250565b7f4552433732313a20617070726f766520746f2063616c6c657200000000000000600082015250565b7f4552433732313a206f70657261746f7220717565727920666f72206e6f6e657860008201527f697374656e7420746f6b656e0000000000000000000000000000000000000000602082015250565b7f4552433732313a20617070726f76652063616c6c6572206973206e6f74206f7760008201527f6e6572206e6f7220617070726f76656420666f7220616c6c0000000000000000602082015250565b7f4552433732313a2062616c616e636520717565727920666f7220746865207a6560008201527f726f206164647265737300000000000000000000000000000000000000000000602082015250565b7f4552433732313a206f776e657220717565727920666f72206e6f6e657869737460008201527f656e7420746f6b656e0000000000000000000000000000000000000000000000602082015250565b7f45524337323155524953746f726167653a2055524920736574206f66206e6f6e60008201527f6578697374656e7420746f6b656e000000000000000000000000000000000000602082015250565b7f796f7520617265206e6f7420746865206f776e65720000000000000000000000600082015250565b7f4552433732313a206d696e7420746f20746865207a65726f2061646472657373600082015250565b7f45524337323155524953746f726167653a2055524920717565727920666f722060008201527f6e6f6e6578697374656e7420746f6b656e000000000000000000000000000000602082015250565b7f4552433732313a20617070726f76656420717565727920666f72206e6f6e657860008201527f697374656e7420746f6b656e0000000000000000000000000000000000000000602082015250565b7f4552433732313a207472616e73666572206f6620746f6b656e2074686174206960008201527f73206e6f74206f776e0000000000000000000000000000000000000000000000602082015250565b7f4552433732314d657461646174613a2055524920717565727920666f72206e6f60008201527f6e6578697374656e7420746f6b656e0000000000000000000000000000000000602082015250565b7f506c65617365207375626d697420657175616c20746f206f722067726561746560008201527f72207468616e2061736b696e6720707269636520696e206f7264657220746f2060208201527f636f6d706c657465207468652070757263686173650000000000000000000000604082015250565b7f53656c6c69676e207072696365206d757374206265206772656174657220746860008201527f616e203020657468000000000000000000000000000000000000000000000000602082015250565b7f4552433732313a20617070726f76616c20746f2063757272656e74206f776e6560008201527f7200000000000000000000000000000000000000000000000000000000000000602082015250565b7f4552433732313a207472616e736665722063616c6c6572206973206e6f74206f60008201527f776e6572206e6f7220617070726f766564000000000000000000000000000000602082015250565b7f4974656d206e6f7420666f722073616c65000000000000000000000000000000600082015250565b7f5265656e7472616e637947756172643a207265656e7472616e742063616c6c00600082015250565b614214816139dc565b811461421f57600080fd5b50565b61422b81613a00565b811461423657600080fd5b50565b61424281613a0c565b811461424d57600080fd5b50565b61425981613a58565b811461426457600080fd5b5056fea2646970667358221220db2468933eb6123fa2504dc88179e030d4fcfc5e68d4f956fd6f2fd5f050d31064736f6c63430008040033",
  "linkReferences": {},
  "deployedLinkReferences": {}
}