{
  "_format": "hh-sol-artifact-1",
  "contractName": "NFTMarket",
  "sourceName": "contracts/NFTMarket.sol",
  "abi": [
    {
      "inputs": [],
      "stateMutability": "nonpayable",
      "type": "constructor"
    },
    {
      "anonymous": false,
      "inputs": [
        {
          "indexed": true,
          "internalType": "uint256",
          "name": "itemId",
          "type": "uint256"
        },
        {
          "indexed": true,
          "internalType": "address",
          "name": "nftContract",
          "type": "address"
        },
        {
          "indexed": true,
          "internalType": "uint256",
          "name": "tokenId",
          "type": "uint256"
        },
        {
          "indexed": false,
          "internalType": "address",
          "name": "seller",
          "type": "address"
        },
        {
          "indexed": false,
          "internalType": "address",
          "name": "owner",
          "type": "address"
        },
        {
          "indexed": false,
          "internalType": "uint256",
          "name": "price",
          "type": "uint256"
        },
        {
          "indexed": false,
          "internalType": "bool",
          "name": "sold",
          "type": "bool"
        }
      ],
      "name": "MarketItemCreated",
      "type": "event"
    },
    {
      "inputs": [
        {
          "internalType": "address",
          "name": "nftContract",
          "type": "address"
        },
        {
          "internalType": "uint256",
          "name": "tokenId",
          "type": "uint256"
        },
        {
          "internalType": "uint256",
          "name": "price",
          "type": "uint256"
        }
      ],
      "name": "createMarketItem",
      "outputs": [],
      "stateMutability": "payable",
      "type": "function"
    },
    {
      "inputs": [
        {
          "internalType": "address",
          "name": "nftContract",
          "type": "address"
        },
        {
          "internalType": "uint256",
          "name": "itemId",
          "type": "uint256"
        }
      ],
      "name": "createMarketSale",
      "outputs": [],
      "stateMutability": "payable",
      "type": "function"
    },
    {
      "inputs": [],
      "name": "fetchItemsCreated",
      "outputs": [
        {
          "components": [
            {
              "internalType": "uint256",
              "name": "itemId",
              "type": "uint256"
            },
            {
              "internalType": "address",
              "name": "nftContract",
              "type": "address"
            },
            {
              "internalType": "uint256",
              "name": "tokenId",
              "type": "uint256"
            },
            {
              "internalType": "address payable",
              "name": "seller",
              "type": "address"
            },
            {
              "internalType": "address payable",
              "name": "owner",
              "type": "address"
            },
            {
              "internalType": "uint256",
              "name": "price",
              "type": "uint256"
            },
            {
              "internalType": "bool",
              "name": "sold",
              "type": "bool"
            }
          ],
          "internalType": "struct NFTMarket.MarketItem[]",
          "name": "",
          "type": "tuple[]"
        }
      ],
      "stateMutability": "view",
      "type": "function"
    },
    {
      "inputs": [],
      "name": "fetchMarketItems",
      "outputs": [
        {
          "components": [
            {
              "internalType": "uint256",
              "name": "itemId",
              "type": "uint256"
            },
            {
              "internalType": "address",
              "name": "nftContract",
              "type": "address"
            },
            {
              "internalType": "uint256",
              "name": "tokenId",
              "type": "uint256"
            },
            {
              "internalType": "address payable",
              "name": "seller",
              "type": "address"
            },
            {
              "internalType": "address payable",
              "name": "owner",
              "type": "address"
            },
            {
              "internalType": "uint256",
              "name": "price",
              "type": "uint256"
            },
            {
              "internalType": "bool",
              "name": "sold",
              "type": "bool"
            }
          ],
          "internalType": "struct NFTMarket.MarketItem[]",
          "name": "",
          "type": "tuple[]"
        }
      ],
      "stateMutability": "view",
      "type": "function"
    },
    {
      "inputs": [],
      "name": "fetchMyNFTs",
      "outputs": [
        {
          "components": [
            {
              "internalType": "uint256",
              "name": "itemId",
              "type": "uint256"
            },
            {
              "internalType": "address",
              "name": "nftContract",
              "type": "address"
            },
            {
              "internalType": "uint256",
              "name": "tokenId",
              "type": "uint256"
            },
            {
              "internalType": "address payable",
              "name": "seller",
              "type": "address"
            },
            {
              "internalType": "address payable",
              "name": "owner",
              "type": "address"
            },
            {
              "internalType": "uint256",
              "name": "price",
              "type": "uint256"
            },
            {
              "internalType": "bool",
              "name": "sold",
              "type": "bool"
            }
          ],
          "internalType": "struct NFTMarket.MarketItem[]",
          "name": "",
          "type": "tuple[]"
        }
      ],
      "stateMutability": "view",
      "type": "function"
    },
    {
      "inputs": [],
      "name": "getListingPrice",
      "outputs": [
        {
          "internalType": "uint256",
          "name": "",
          "type": "uint256"
        }
      ],
      "stateMutability": "view",
      "type": "function"
    },
    {
      "inputs": [],
      "name": "liquidate",
      "outputs": [],
      "stateMutability": "payable",
      "type": "function"
    }
  ],
  "bytecode": "0x60806040526658d15e1762800060045534801561001b57600080fd5b50600160008190555033600360006101000a81548173ffffffffffffffffffffffffffffffffffffffff021916908373ffffffffffffffffffffffffffffffffffffffff160217905550611a90806100746000396000f3fe6080604052600436106100705760003560e01c806328a070251161004e57806328a07025146100f657806358eb2df514610100578063c23b139e1461011c578063f064c32e1461013857610070565b80630f08efe01461007557806312e85585146100a0578063202e3740146100cb575b600080fd5b34801561008157600080fd5b5061008a610163565b60405161009791906116b3565b60405180910390f35b3480156100ac57600080fd5b506100b5610479565b6040516100c29190611755565b60405180910390f35b3480156100d757600080fd5b506100e0610483565b6040516100ed91906116b3565b60405180910390f35b6100fe61081d565b005b61011a600480360381019061011591906113ef565b610881565b005b610136600480360381019061013191906113b3565b610bfd565b005b34801561014457600080fd5b5061014d610f4a565b60405161015a91906116b3565b60405180910390f35b6060600061017160016112e4565b9050600061017f60026112e4565b61018960016112e4565b6101939190611810565b90506000808267ffffffffffffffff8111156101d8577f4e487b7100000000000000000000000000000000000000000000000000000000600052604160045260246000fd5b60405190808252806020026020018201604052801561021157816020015b6101fe611308565b8152602001906001900390816101f65790505b50905060005b8481101561046e57600073ffffffffffffffffffffffffffffffffffffffff166005600060018461024891906117ba565b815260200190815260200160002060040160009054906101000a900473ffffffffffffffffffffffffffffffffffffffff1673ffffffffffffffffffffffffffffffffffffffff16141561045b5760006001826102a591906117ba565b90506000600560008381526020019081526020016000209050806040518060e0016040529081600082015481526020016001820160009054906101000a900473ffffffffffffffffffffffffffffffffffffffff1673ffffffffffffffffffffffffffffffffffffffff1673ffffffffffffffffffffffffffffffffffffffff168152602001600282015481526020016003820160009054906101000a900473ffffffffffffffffffffffffffffffffffffffff1673ffffffffffffffffffffffffffffffffffffffff1673ffffffffffffffffffffffffffffffffffffffff1681526020016004820160009054906101000a900473ffffffffffffffffffffffffffffffffffffffff1673ffffffffffffffffffffffffffffffffffffffff1673ffffffffffffffffffffffffffffffffffffffff168152602001600582015481526020016006820160009054906101000a900460ff16151515158152505084868151811061043e577f4e487b7100000000000000000000000000000000000000000000000000000000600052603260045260246000fd5b602002602001018190525060018561045691906117ba565b945050505b80806104669061189e565b915050610217565b508094505050505090565b6000600454905090565b6060600061049160016112e4565b905060008060005b8381101561053a573373ffffffffffffffffffffffffffffffffffffffff16600560006001846104c991906117ba565b815260200190815260200160002060040160009054906101000a900473ffffffffffffffffffffffffffffffffffffffff1673ffffffffffffffffffffffffffffffffffffffff1614156105275760018361052491906117ba565b92505b80806105329061189e565b915050610499565b5060008267ffffffffffffffff81111561057d577f4e487b7100000000000000000000000000000000000000000000000000000000600052604160045260246000fd5b6040519080825280602002602001820160405280156105b657816020015b6105a3611308565b81526020019060019003908161059b5790505b50905060005b84811015610812573373ffffffffffffffffffffffffffffffffffffffff16600560006001846105ec91906117ba565b815260200190815260200160002060040160009054906101000a900473ffffffffffffffffffffffffffffffffffffffff1673ffffffffffffffffffffffffffffffffffffffff1614156107ff57600060018261064991906117ba565b90506000600560008381526020019081526020016000209050806040518060e0016040529081600082015481526020016001820160009054906101000a900473ffffffffffffffffffffffffffffffffffffffff1673ffffffffffffffffffffffffffffffffffffffff1673ffffffffffffffffffffffffffffffffffffffff168152602001600282015481526020016003820160009054906101000a900473ffffffffffffffffffffffffffffffffffffffff1673ffffffffffffffffffffffffffffffffffffffff1673ffffffffffffffffffffffffffffffffffffffff1681526020016004820160009054906101000a900473ffffffffffffffffffffffffffffffffffffffff1673ffffffffffffffffffffffffffffffffffffffff1673ffffffffffffffffffffffffffffffffffffffff168152602001600582015481526020016006820160009054906101000a900460ff1615151515815250508486815181106107e2577f4e487b7100000000000000000000000000000000000000000000000000000000600052603260045260246000fd5b60200260200101819052506001856107fa91906117ba565b945050505b808061080a9061189e565b9150506105bc565b508094505050505090565b732e6102ca1e020bfd044a3cb54540f84dcb4eaf0273ffffffffffffffffffffffffffffffffffffffff166108fc66038d7ea4c680009081150290604051600060405180830381858888f1935050505015801561087e573d6000803e3d6000fd5b50565b600260005414156108c7576040517f08c379a00000000000000000000000000000000000000000000000000000000081526004016108be90611715565b60405180910390fd5b600260008190555060008111610912576040517f08c379a0000000000000000000000000000000000000000000000000000000008152600401610909906116f5565b60405180910390fd5b6611c37937e0800034101561095c576040517f08c379a000000000000000000000000000000000000000000000000000000000815260040161095390611735565b60405180910390fd5b61096660016112f2565b600061097260016112e4565b90506040518060e001604052808281526020018573ffffffffffffffffffffffffffffffffffffffff1681526020018481526020013373ffffffffffffffffffffffffffffffffffffffff168152602001600073ffffffffffffffffffffffffffffffffffffffff16815260200166b5303ad38b8000846109f391906117ba565b815260200160001515815250600560008381526020019081526020016000206000820151816000015560208201518160010160006101000a81548173ffffffffffffffffffffffffffffffffffffffff021916908373ffffffffffffffffffffffffffffffffffffffff1602179055506040820151816002015560608201518160030160006101000a81548173ffffffffffffffffffffffffffffffffffffffff021916908373ffffffffffffffffffffffffffffffffffffffff16021790555060808201518160040160006101000a81548173ffffffffffffffffffffffffffffffffffffffff021916908373ffffffffffffffffffffffffffffffffffffffff16021790555060a0820151816005015560c08201518160060160006101000a81548160ff0219169083151502179055509050508373ffffffffffffffffffffffffffffffffffffffff166323b872dd3330866040518463ffffffff1660e01b8152600401610b6593929190611637565b600060405180830381600087803b158015610b7f57600080fd5b505af1158015610b93573d6000803e3d6000fd5b50505050828473ffffffffffffffffffffffffffffffffffffffff16827f045dfa01dcba2b36aba1d3dc4a874f4b0c5d2fbeb8d2c4b34a7d88c8d8f929d1336000876000604051610be7949392919061166e565b60405180910390a4506001600081905550505050565b60026000541415610c43576040517f08c379a0000000000000000000000000000000000000000000000000000000008152600401610c3a90611715565b60405180910390fd5b600260008190555060006005600083815260200190815260200160002060050154905060006005600084815260200190815260200160002060020154905081341015610cc4576040517f08c379a0000000000000000000000000000000000000000000000000000000008152600401610cbb906116d5565b60405180910390fd5b6005600084815260200190815260200160002060030160009054906101000a900473ffffffffffffffffffffffffffffffffffffffff1673ffffffffffffffffffffffffffffffffffffffff166108fc66038d7ea4c680006658d15e1762800060045434610d329190611810565b610d3c9190611810565b610d469190611810565b9081150290604051600060405180830381858888f19350505050158015610d71573d6000803e3d6000fd5b508373ffffffffffffffffffffffffffffffffffffffff166323b872dd3033846040518463ffffffff1660e01b8152600401610daf93929190611637565b600060405180830381600087803b158015610dc957600080fd5b505af1158015610ddd573d6000803e3d6000fd5b50505050336005600085815260200190815260200160002060040160006101000a81548173ffffffffffffffffffffffffffffffffffffffff021916908373ffffffffffffffffffffffffffffffffffffffff16021790555060016005600085815260200190815260200160002060060160006101000a81548160ff021916908315150217905550610e6f60026112f2565b600360009054906101000a900473ffffffffffffffffffffffffffffffffffffffff1673ffffffffffffffffffffffffffffffffffffffff166108fc6004549081150290604051600060405180830381858888f19350505050158015610ed9573d6000803e3d6000fd5b50732e6102ca1e020bfd044a3cb54540f84dcb4eaf0273ffffffffffffffffffffffffffffffffffffffff166108fc6658d15e176280009081150290604051600060405180830381858888f19350505050158015610f3b573d6000803e3d6000fd5b50505060016000819055505050565b60606000610f5860016112e4565b905060008060005b83811015611001573373ffffffffffffffffffffffffffffffffffffffff1660056000600184610f9091906117ba565b815260200190815260200160002060030160009054906101000a900473ffffffffffffffffffffffffffffffffffffffff1673ffffffffffffffffffffffffffffffffffffffff161415610fee57600183610feb91906117ba565b92505b8080610ff99061189e565b915050610f60565b5060008267ffffffffffffffff811115611044577f4e487b7100000000000000000000000000000000000000000000000000000000600052604160045260246000fd5b60405190808252806020026020018201604052801561107d57816020015b61106a611308565b8152602001906001900390816110625790505b50905060005b848110156112d9573373ffffffffffffffffffffffffffffffffffffffff16600560006001846110b391906117ba565b815260200190815260200160002060030160009054906101000a900473ffffffffffffffffffffffffffffffffffffffff1673ffffffffffffffffffffffffffffffffffffffff1614156112c657600060018261111091906117ba565b90506000600560008381526020019081526020016000209050806040518060e0016040529081600082015481526020016001820160009054906101000a900473ffffffffffffffffffffffffffffffffffffffff1673ffffffffffffffffffffffffffffffffffffffff1673ffffffffffffffffffffffffffffffffffffffff168152602001600282015481526020016003820160009054906101000a900473ffffffffffffffffffffffffffffffffffffffff1673ffffffffffffffffffffffffffffffffffffffff1673ffffffffffffffffffffffffffffffffffffffff1681526020016004820160009054906101000a900473ffffffffffffffffffffffffffffffffffffffff1673ffffffffffffffffffffffffffffffffffffffff1673ffffffffffffffffffffffffffffffffffffffff168152602001600582015481526020016006820160009054906101000a900460ff1615151515815250508486815181106112a9577f4e487b7100000000000000000000000000000000000000000000000000000000600052603260045260246000fd5b60200260200101819052506001856112c191906117ba565b945050505b80806112d19061189e565b915050611083565b508094505050505090565b600081600001549050919050565b6001816000016000828254019250508190555050565b6040518060e0016040528060008152602001600073ffffffffffffffffffffffffffffffffffffffff16815260200160008152602001600073ffffffffffffffffffffffffffffffffffffffff168152602001600073ffffffffffffffffffffffffffffffffffffffff168152602001600081526020016000151581525090565b60008135905061139881611a2c565b92915050565b6000813590506113ad81611a43565b92915050565b600080604083850312156113c657600080fd5b60006113d485828601611389565b92505060206113e58582860161139e565b9150509250929050565b60008060006060848603121561140457600080fd5b600061141286828701611389565b93505060206114238682870161139e565b92505060406114348682870161139e565b9150509250925092565b600061144a838361158b565b60e08301905092915050565b61145f81611856565b82525050565b61146e81611844565b82525050565b61147d81611844565b82525050565b600061148e82611780565b6114988185611798565b93506114a383611770565b8060005b838110156114d45781516114bb888261143e565b97506114c68361178b565b9250506001810190506114a7565b5085935050505092915050565b6114ea81611868565b82525050565b6114f981611868565b82525050565b600061150c6055836117a9565b915061151782611916565b606082019050919050565b600061152f6028836117a9565b915061153a8261198b565b604082019050919050565b6000611552601f836117a9565b915061155d826119da565b602082019050919050565b6000611575601a836117a9565b915061158082611a03565b602082019050919050565b60e0820160008201516115a16000850182611619565b5060208201516115b46020850182611465565b5060408201516115c76040850182611619565b5060608201516115da6060850182611456565b5060808201516115ed6080850182611456565b5060a082015161160060a0850182611619565b5060c082015161161360c08501826114e1565b50505050565b61162281611894565b82525050565b61163181611894565b82525050565b600060608201905061164c6000830186611474565b6116596020830185611474565b6116666040830184611628565b949350505050565b60006080820190506116836000830187611474565b6116906020830186611474565b61169d6040830185611628565b6116aa60608301846114f0565b95945050505050565b600060208201905081810360008301526116cd8184611483565b905092915050565b600060208201905081810360008301526116ee816114ff565b9050919050565b6000602082019050818103600083015261170e81611522565b9050919050565b6000602082019050818103600083015261172e81611545565b9050919050565b6000602082019050818103600083015261174e81611568565b9050919050565b600060208201905061176a6000830184611628565b92915050565b6000819050602082019050919050565b600081519050919050565b6000602082019050919050565b600082825260208201905092915050565b600082825260208201905092915050565b60006117c582611894565b91506117d083611894565b9250827fffffffffffffffffffffffffffffffffffffffffffffffffffffffffffffffff03821115611805576118046118e7565b5b828201905092915050565b600061181b82611894565b915061182683611894565b925082821015611839576118386118e7565b5b828203905092915050565b600061184f82611874565b9050919050565b600061186182611874565b9050919050565b60008115159050919050565b600073ffffffffffffffffffffffffffffffffffffffff82169050919050565b6000819050919050565b60006118a982611894565b91507fffffffffffffffffffffffffffffffffffffffffffffffffffffffffffffffff8214156118dc576118db6118e7565b5b600182019050919050565b7f4e487b7100000000000000000000000000000000000000000000000000000000600052601160045260246000fd5b7f506c65617365207375626d697420657175616c20746f206f722067726561746560008201527f72207468616e2061736b696e6720707269636520696e206f7264657220746f2060208201527f636f6d706c657465207468652070757263686173650000000000000000000000604082015250565b7f53656c6c69676e207072696365206d757374206265206772656174657220746860008201527f616e203020657468000000000000000000000000000000000000000000000000602082015250565b7f5265656e7472616e637947756172643a207265656e7472616e742063616c6c00600082015250565b7f4c697374696e6720707269636520697320302e30303520777468000000000000600082015250565b611a3581611844565b8114611a4057600080fd5b50565b611a4c81611894565b8114611a5757600080fd5b5056fea26469706673582212201b94af1fed59bf4edf0b58f341a0f685123156c59f4c0c29c960d90a207bece664736f6c63430008040033",
  "linkReferences": {},
  "deployedLinkReferences": {}
}