{
  "_format": "hh-sol-artifact-1",
  "contractName": "NFTMarket",
  "sourceName": "contracts/NFTMarket.sol",
  "abi": [
    {
      "inputs": [],
      "stateMutability": "nonpayable",
      "type": "constructor"
    },
    {
      "anonymous": false,
      "inputs": [
        {
          "indexed": true,
          "internalType": "uint256",
          "name": "itemId",
          "type": "uint256"
        },
        {
          "indexed": true,
          "internalType": "address",
          "name": "nftContract",
          "type": "address"
        },
        {
          "indexed": true,
          "internalType": "uint256",
          "name": "tokenId",
          "type": "uint256"
        },
        {
          "indexed": false,
          "internalType": "address",
          "name": "seller",
          "type": "address"
        },
        {
          "indexed": false,
          "internalType": "address",
          "name": "owner",
          "type": "address"
        },
        {
          "indexed": false,
          "internalType": "uint256",
          "name": "price",
          "type": "uint256"
        },
        {
          "indexed": false,
          "internalType": "bool",
          "name": "sold",
          "type": "bool"
        }
      ],
      "name": "MarketItemCreated",
      "type": "event"
    },
    {
      "inputs": [
        {
          "internalType": "address",
          "name": "nftContract",
          "type": "address"
        },
        {
          "internalType": "uint256",
          "name": "tokenId",
          "type": "uint256"
        },
        {
          "internalType": "uint256",
          "name": "price",
          "type": "uint256"
        }
      ],
      "name": "createMarketItem",
      "outputs": [],
      "stateMutability": "payable",
      "type": "function"
    },
    {
      "inputs": [
        {
          "internalType": "address",
          "name": "nftContract",
          "type": "address"
        },
        {
          "internalType": "uint256",
          "name": "itemId",
          "type": "uint256"
        }
      ],
      "name": "createMarketSale",
      "outputs": [],
      "stateMutability": "payable",
      "type": "function"
    },
    {
      "inputs": [],
      "name": "fetchItemsCreated",
      "outputs": [
        {
          "components": [
            {
              "internalType": "uint256",
              "name": "itemId",
              "type": "uint256"
            },
            {
              "internalType": "address",
              "name": "nftContract",
              "type": "address"
            },
            {
              "internalType": "uint256",
              "name": "tokenId",
              "type": "uint256"
            },
            {
              "internalType": "address payable",
              "name": "seller",
              "type": "address"
            },
            {
              "internalType": "address payable",
              "name": "owner",
              "type": "address"
            },
            {
              "internalType": "uint256",
              "name": "price",
              "type": "uint256"
            },
            {
              "internalType": "bool",
              "name": "sold",
              "type": "bool"
            }
          ],
          "internalType": "struct NFTMarket.MarketItem[]",
          "name": "",
          "type": "tuple[]"
        }
      ],
      "stateMutability": "view",
      "type": "function"
    },
    {
      "inputs": [],
      "name": "fetchMarketItems",
      "outputs": [
        {
          "components": [
            {
              "internalType": "uint256",
              "name": "itemId",
              "type": "uint256"
            },
            {
              "internalType": "address",
              "name": "nftContract",
              "type": "address"
            },
            {
              "internalType": "uint256",
              "name": "tokenId",
              "type": "uint256"
            },
            {
              "internalType": "address payable",
              "name": "seller",
              "type": "address"
            },
            {
              "internalType": "address payable",
              "name": "owner",
              "type": "address"
            },
            {
              "internalType": "uint256",
              "name": "price",
              "type": "uint256"
            },
            {
              "internalType": "bool",
              "name": "sold",
              "type": "bool"
            }
          ],
          "internalType": "struct NFTMarket.MarketItem[]",
          "name": "",
          "type": "tuple[]"
        }
      ],
      "stateMutability": "view",
      "type": "function"
    },
    {
      "inputs": [],
      "name": "fetchMyNFTs",
      "outputs": [
        {
          "components": [
            {
              "internalType": "uint256",
              "name": "itemId",
              "type": "uint256"
            },
            {
              "internalType": "address",
              "name": "nftContract",
              "type": "address"
            },
            {
              "internalType": "uint256",
              "name": "tokenId",
              "type": "uint256"
            },
            {
              "internalType": "address payable",
              "name": "seller",
              "type": "address"
            },
            {
              "internalType": "address payable",
              "name": "owner",
              "type": "address"
            },
            {
              "internalType": "uint256",
              "name": "price",
              "type": "uint256"
            },
            {
              "internalType": "bool",
              "name": "sold",
              "type": "bool"
            }
          ],
          "internalType": "struct NFTMarket.MarketItem[]",
          "name": "",
          "type": "tuple[]"
        }
      ],
      "stateMutability": "view",
      "type": "function"
    },
    {
      "inputs": [],
      "name": "getListingPrice",
      "outputs": [
        {
          "internalType": "uint256",
          "name": "",
          "type": "uint256"
        }
      ],
      "stateMutability": "view",
      "type": "function"
    },
    {
      "inputs": [],
      "name": "liquidate",
      "outputs": [],
      "stateMutability": "payable",
      "type": "function"
    }
  ],
  "bytecode": "0x60806040526658d15e1762800060045534801561001b57600080fd5b50600160008190555033600360006101000a81548173ffffffffffffffffffffffffffffffffffffffff021916908373ffffffffffffffffffffffffffffffffffffffff160217905550611ae0806100746000396000f3fe6080604052600436106100705760003560e01c806328a070251161004e57806328a07025146100f657806358eb2df514610100578063c23b139e1461011c578063f064c32e1461013857610070565b80630f08efe01461007557806312e85585146100a0578063202e3740146100cb575b600080fd5b34801561008157600080fd5b5061008a610163565b6040516100979190611703565b60405180910390f35b3480156100ac57600080fd5b506100b5610479565b6040516100c291906117a5565b60405180910390f35b3480156100d757600080fd5b506100e0610483565b6040516100ed9190611703565b60405180910390f35b6100fe61081d565b005b61011a6004803603810190610115919061143f565b6108ca565b005b61013660048036038101906101319190611403565b610c4d565b005b34801561014457600080fd5b5061014d610f9a565b60405161015a9190611703565b60405180910390f35b606060006101716001611334565b9050600061017f6002611334565b6101896001611334565b6101939190611860565b90506000808267ffffffffffffffff8111156101d8577f4e487b7100000000000000000000000000000000000000000000000000000000600052604160045260246000fd5b60405190808252806020026020018201604052801561021157816020015b6101fe611358565b8152602001906001900390816101f65790505b50905060005b8481101561046e57600073ffffffffffffffffffffffffffffffffffffffff1660056000600184610248919061180a565b815260200190815260200160002060040160009054906101000a900473ffffffffffffffffffffffffffffffffffffffff1673ffffffffffffffffffffffffffffffffffffffff16141561045b5760006001826102a5919061180a565b90506000600560008381526020019081526020016000209050806040518060e0016040529081600082015481526020016001820160009054906101000a900473ffffffffffffffffffffffffffffffffffffffff1673ffffffffffffffffffffffffffffffffffffffff1673ffffffffffffffffffffffffffffffffffffffff168152602001600282015481526020016003820160009054906101000a900473ffffffffffffffffffffffffffffffffffffffff1673ffffffffffffffffffffffffffffffffffffffff1673ffffffffffffffffffffffffffffffffffffffff1681526020016004820160009054906101000a900473ffffffffffffffffffffffffffffffffffffffff1673ffffffffffffffffffffffffffffffffffffffff1673ffffffffffffffffffffffffffffffffffffffff168152602001600582015481526020016006820160009054906101000a900460ff16151515158152505084868151811061043e577f4e487b7100000000000000000000000000000000000000000000000000000000600052603260045260246000fd5b6020026020010181905250600185610456919061180a565b945050505b8080610466906118ee565b915050610217565b508094505050505090565b6000600454905090565b606060006104916001611334565b905060008060005b8381101561053a573373ffffffffffffffffffffffffffffffffffffffff16600560006001846104c9919061180a565b815260200190815260200160002060040160009054906101000a900473ffffffffffffffffffffffffffffffffffffffff1673ffffffffffffffffffffffffffffffffffffffff16141561052757600183610524919061180a565b92505b8080610532906118ee565b915050610499565b5060008267ffffffffffffffff81111561057d577f4e487b7100000000000000000000000000000000000000000000000000000000600052604160045260246000fd5b6040519080825280602002602001820160405280156105b657816020015b6105a3611358565b81526020019060019003908161059b5790505b50905060005b84811015610812573373ffffffffffffffffffffffffffffffffffffffff16600560006001846105ec919061180a565b815260200190815260200160002060040160009054906101000a900473ffffffffffffffffffffffffffffffffffffffff1673ffffffffffffffffffffffffffffffffffffffff1614156107ff576000600182610649919061180a565b90506000600560008381526020019081526020016000209050806040518060e0016040529081600082015481526020016001820160009054906101000a900473ffffffffffffffffffffffffffffffffffffffff1673ffffffffffffffffffffffffffffffffffffffff1673ffffffffffffffffffffffffffffffffffffffff168152602001600282015481526020016003820160009054906101000a900473ffffffffffffffffffffffffffffffffffffffff1673ffffffffffffffffffffffffffffffffffffffff1673ffffffffffffffffffffffffffffffffffffffff1681526020016004820160009054906101000a900473ffffffffffffffffffffffffffffffffffffffff1673ffffffffffffffffffffffffffffffffffffffff1673ffffffffffffffffffffffffffffffffffffffff168152602001600582015481526020016006820160009054906101000a900460ff1615151515815250508486815181106107e2577f4e487b7100000000000000000000000000000000000000000000000000000000600052603260045260246000fd5b60200260200101819052506001856107fa919061180a565b945050505b808061080a906118ee565b9150506105bc565b508094505050505090565b732e6102ca1e020bfd044a3cb54540f84dcb4eaf0273ffffffffffffffffffffffffffffffffffffffff163373ffffffffffffffffffffffffffffffffffffffff1614156108c857732e6102ca1e020bfd044a3cb54540f84dcb4eaf0273ffffffffffffffffffffffffffffffffffffffff166108fc662386f26fc100009081150290604051600060405180830381858888f193505050501580156108c6573d6000803e3d6000fd5b505b565b60026000541415610910576040517f08c379a000000000000000000000000000000000000000000000000000000000815260040161090790611765565b60405180910390fd5b60026000819055506706f05b59d3b200008111610962576040517f08c379a000000000000000000000000000000000000000000000000000000000815260040161095990611745565b60405180910390fd5b6611c37937e080003410156109ac576040517f08c379a00000000000000000000000000000000000000000000000000000000081526004016109a390611785565b60405180910390fd5b6109b66001611342565b60006109c26001611334565b90506040518060e001604052808281526020018573ffffffffffffffffffffffffffffffffffffffff1681526020018481526020013373ffffffffffffffffffffffffffffffffffffffff168152602001600073ffffffffffffffffffffffffffffffffffffffff16815260200166b5303ad38b800084610a43919061180a565b815260200160001515815250600560008381526020019081526020016000206000820151816000015560208201518160010160006101000a81548173ffffffffffffffffffffffffffffffffffffffff021916908373ffffffffffffffffffffffffffffffffffffffff1602179055506040820151816002015560608201518160030160006101000a81548173ffffffffffffffffffffffffffffffffffffffff021916908373ffffffffffffffffffffffffffffffffffffffff16021790555060808201518160040160006101000a81548173ffffffffffffffffffffffffffffffffffffffff021916908373ffffffffffffffffffffffffffffffffffffffff16021790555060a0820151816005015560c08201518160060160006101000a81548160ff0219169083151502179055509050508373ffffffffffffffffffffffffffffffffffffffff166323b872dd3330866040518463ffffffff1660e01b8152600401610bb593929190611687565b600060405180830381600087803b158015610bcf57600080fd5b505af1158015610be3573d6000803e3d6000fd5b50505050828473ffffffffffffffffffffffffffffffffffffffff16827f045dfa01dcba2b36aba1d3dc4a874f4b0c5d2fbeb8d2c4b34a7d88c8d8f929d1336000876000604051610c3794939291906116be565b60405180910390a4506001600081905550505050565b60026000541415610c93576040517f08c379a0000000000000000000000000000000000000000000000000000000008152600401610c8a90611765565b60405180910390fd5b600260008190555060006005600083815260200190815260200160002060050154905060006005600084815260200190815260200160002060020154905081341015610d14576040517f08c379a0000000000000000000000000000000000000000000000000000000008152600401610d0b90611725565b60405180910390fd5b6005600084815260200190815260200160002060030160009054906101000a900473ffffffffffffffffffffffffffffffffffffffff1673ffffffffffffffffffffffffffffffffffffffff166108fc66038d7ea4c680006658d15e1762800060045434610d829190611860565b610d8c9190611860565b610d969190611860565b9081150290604051600060405180830381858888f19350505050158015610dc1573d6000803e3d6000fd5b508373ffffffffffffffffffffffffffffffffffffffff166323b872dd3033846040518463ffffffff1660e01b8152600401610dff93929190611687565b600060405180830381600087803b158015610e1957600080fd5b505af1158015610e2d573d6000803e3d6000fd5b50505050336005600085815260200190815260200160002060040160006101000a81548173ffffffffffffffffffffffffffffffffffffffff021916908373ffffffffffffffffffffffffffffffffffffffff16021790555060016005600085815260200190815260200160002060060160006101000a81548160ff021916908315150217905550610ebf6002611342565b600360009054906101000a900473ffffffffffffffffffffffffffffffffffffffff1673ffffffffffffffffffffffffffffffffffffffff166108fc6004549081150290604051600060405180830381858888f19350505050158015610f29573d6000803e3d6000fd5b50732e6102ca1e020bfd044a3cb54540f84dcb4eaf0273ffffffffffffffffffffffffffffffffffffffff166108fc6658d15e176280009081150290604051600060405180830381858888f19350505050158015610f8b573d6000803e3d6000fd5b50505060016000819055505050565b60606000610fa86001611334565b905060008060005b83811015611051573373ffffffffffffffffffffffffffffffffffffffff1660056000600184610fe0919061180a565b815260200190815260200160002060030160009054906101000a900473ffffffffffffffffffffffffffffffffffffffff1673ffffffffffffffffffffffffffffffffffffffff16141561103e5760018361103b919061180a565b92505b8080611049906118ee565b915050610fb0565b5060008267ffffffffffffffff811115611094577f4e487b7100000000000000000000000000000000000000000000000000000000600052604160045260246000fd5b6040519080825280602002602001820160405280156110cd57816020015b6110ba611358565b8152602001906001900390816110b25790505b50905060005b84811015611329573373ffffffffffffffffffffffffffffffffffffffff1660056000600184611103919061180a565b815260200190815260200160002060030160009054906101000a900473ffffffffffffffffffffffffffffffffffffffff1673ffffffffffffffffffffffffffffffffffffffff161415611316576000600182611160919061180a565b90506000600560008381526020019081526020016000209050806040518060e0016040529081600082015481526020016001820160009054906101000a900473ffffffffffffffffffffffffffffffffffffffff1673ffffffffffffffffffffffffffffffffffffffff1673ffffffffffffffffffffffffffffffffffffffff168152602001600282015481526020016003820160009054906101000a900473ffffffffffffffffffffffffffffffffffffffff1673ffffffffffffffffffffffffffffffffffffffff1673ffffffffffffffffffffffffffffffffffffffff1681526020016004820160009054906101000a900473ffffffffffffffffffffffffffffffffffffffff1673ffffffffffffffffffffffffffffffffffffffff1673ffffffffffffffffffffffffffffffffffffffff168152602001600582015481526020016006820160009054906101000a900460ff1615151515815250508486815181106112f9577f4e487b7100000000000000000000000000000000000000000000000000000000600052603260045260246000fd5b6020026020010181905250600185611311919061180a565b945050505b8080611321906118ee565b9150506110d3565b508094505050505090565b600081600001549050919050565b6001816000016000828254019250508190555050565b6040518060e0016040528060008152602001600073ffffffffffffffffffffffffffffffffffffffff16815260200160008152602001600073ffffffffffffffffffffffffffffffffffffffff168152602001600073ffffffffffffffffffffffffffffffffffffffff168152602001600081526020016000151581525090565b6000813590506113e881611a7c565b92915050565b6000813590506113fd81611a93565b92915050565b6000806040838503121561141657600080fd5b6000611424858286016113d9565b9250506020611435858286016113ee565b9150509250929050565b60008060006060848603121561145457600080fd5b6000611462868287016113d9565b9350506020611473868287016113ee565b9250506040611484868287016113ee565b9150509250925092565b600061149a83836115db565b60e08301905092915050565b6114af816118a6565b82525050565b6114be81611894565b82525050565b6114cd81611894565b82525050565b60006114de826117d0565b6114e881856117e8565b93506114f3836117c0565b8060005b8381101561152457815161150b888261148e565b9750611516836117db565b9250506001810190506114f7565b5085935050505092915050565b61153a816118b8565b82525050565b611549816118b8565b82525050565b600061155c6055836117f9565b915061156782611966565b606082019050919050565b600061157f602a836117f9565b915061158a826119db565b604082019050919050565b60006115a2601f836117f9565b91506115ad82611a2a565b602082019050919050565b60006115c5601a836117f9565b91506115d082611a53565b602082019050919050565b60e0820160008201516115f16000850182611669565b50602082015161160460208501826114b5565b5060408201516116176040850182611669565b50606082015161162a60608501826114a6565b50608082015161163d60808501826114a6565b5060a082015161165060a0850182611669565b5060c082015161166360c0850182611531565b50505050565b611672816118e4565b82525050565b611681816118e4565b82525050565b600060608201905061169c60008301866114c4565b6116a960208301856114c4565b6116b66040830184611678565b949350505050565b60006080820190506116d360008301876114c4565b6116e060208301866114c4565b6116ed6040830185611678565b6116fa6060830184611540565b95945050505050565b6000602082019050818103600083015261171d81846114d3565b905092915050565b6000602082019050818103600083015261173e8161154f565b9050919050565b6000602082019050818103600083015261175e81611572565b9050919050565b6000602082019050818103600083015261177e81611595565b9050919050565b6000602082019050818103600083015261179e816115b8565b9050919050565b60006020820190506117ba6000830184611678565b92915050565b6000819050602082019050919050565b600081519050919050565b6000602082019050919050565b600082825260208201905092915050565b600082825260208201905092915050565b6000611815826118e4565b9150611820836118e4565b9250827fffffffffffffffffffffffffffffffffffffffffffffffffffffffffffffffff0382111561185557611854611937565b5b828201905092915050565b600061186b826118e4565b9150611876836118e4565b92508282101561188957611888611937565b5b828203905092915050565b600061189f826118c4565b9050919050565b60006118b1826118c4565b9050919050565b60008115159050919050565b600073ffffffffffffffffffffffffffffffffffffffff82169050919050565b6000819050919050565b60006118f9826118e4565b91507fffffffffffffffffffffffffffffffffffffffffffffffffffffffffffffffff82141561192c5761192b611937565b5b600182019050919050565b7f4e487b7100000000000000000000000000000000000000000000000000000000600052601160045260246000fd5b7f506c65617365207375626d697420657175616c20746f206f722067726561746560008201527f72207468616e2061736b696e6720707269636520696e206f7264657220746f2060208201527f636f6d706c657465207468652070757263686173650000000000000000000000604082015250565b7f53656c6c69676e207072696365206d757374206265206772656174657220746860008201527f616e20302e352065746800000000000000000000000000000000000000000000602082015250565b7f5265656e7472616e637947756172643a207265656e7472616e742063616c6c00600082015250565b7f4c697374696e6720707269636520697320302e30303520777468000000000000600082015250565b611a8581611894565b8114611a9057600080fd5b50565b611a9c816118e4565b8114611aa757600080fd5b5056fea2646970667358221220020df969809b495bddcb1980d2248864050fcc83ac96506f558f31792baecb7964736f6c63430008040033",
  "linkReferences": {},
  "deployedLinkReferences": {}
}